:020000021000EC
:100000000000042039A6010071A6010075890100D5
:1000100075A60100818901008789010000000000A8
:10002000000000000000000000000000CD340100CE
:100030007DA6010000000000673501007735010052
:100040001DE30100C559010083A6010083A601003C
:1000500083A6010083A6010083A6010083A60100F8
:1000600083A6010083A6010083A6010083A60100E8
:1000700083A60100B1E4010083A60100DD5901005F
:1000800083A6010083A6010083A6010083A60100C8
:1000900083A6010083A6010083A6010083A60100B8
:1000A00083A6010083A6010083A6010083A60100A8
:1000B00083A6010083A601000000000000000000EC
:1000C00083A6010083A6010083A6010083A6010088
:1000D00083A6010083A6010083A6010083A6010078
:1000E00083A6010083A6010083A601000000000092
:1000F0000000000083A601000000000083A60100AC
:1001000010B5054C237833B9044B13B10448AFF351
:1001100000800123237010BD0010002000000000AB
:100120007472020008B5034B1BB103490348AFF3D7
:10013000008008BD0000000004100020747202005E
:10014000154B002B08BF134B9D46A3F5803A0021A9
:100150008B460F461348144A121A11F021FD0F4B1B
:10016000002B00D098470E4B002B00D09847002062
:10017000002104000D000D48002802D00C4809F0B1
:1001800095F911F01DF82000290005F04FFA09F04B
:100190008AF900BF000008000000042000000000F1
:1001A0008955010000100020A8B60020AD94010080
:1001B000000000007047B0F90A3013B100EB0310E3
:1001C00070471846704738B5436A034400251D71CF
:1001D0000446011D006803F04CF800B16562606AD6
:1001E00038BD38B5436A01331F2B04460D4606D887
:1001F000636A5A1C62621C440120257138BDFFF7F6
:10020000E2FF0028F4D00020F8E7036803EBC10107
:1002100082B0086849686B4603C3DDE9000102B09B
:100220007047F8B5054616460C468F18BC4205D0F7
:1002300014F8011B2846FFF7D4FFF7E7AB6A3344F5
:10024000AB62F8BD38B5054608460C4612F098F882
:10025000214602462846FFF7E4FF38BD2DE9F0416C
:1002600086B00DF11604054616461F46A0463046D8
:1002700039460A2200230FF03DFD303204F8012DEB
:100280000023304639460A220FF034FD06460F4659
:1002900056EA0703EBD1A8EB040221462846FFF7F4
:1002A000C0FF06B0BDE8F0812DE9F843037A174698
:1002B00013F07F0202BF23F07F0343F02003037299
:1002C000037A08BFC0E900229B0605460E4602D409
:1002D0000020BDE8F8830029FAD00468BCB130469C
:1002E00012F04EF8D4F80C808146B8F1000F2CD0F3
:1002F000404612F045F8484529D1002383420DD0ED
:10030000F15C18F80320914221D10133F6E7D7E9D7
:1003100001231032934203D201233B742046D8E7D5
:10032000A3F11000B8600028D2D06A685AB1811ACF
:10033000091151810022686023F8062C03F8082C6B
:1003400043F8046CC5E72860F4E70028E6D02046AF
:10035000FFF731FF0446C1E710B50446FFF741FF40
:10036000A36A1844A06210BD38B50D4B044613F8BB
:10037000025C6DB1023313F8032C8A42F7D15C2181
:100380002046FFF7E9FF29462046FFF7E5FF05E095
:100390000029F9D103492046FFF754FF38BD00BFBB
:1003A00024520200315202002DE9F04F037A03F08B
:1003B0007F03062B89B005460C4600F0F38107D871
:1003C000022B0ED3032B00F2C581D0E9001276E197
:1003D0000C2B25D007D8082B00F0E1810A2B00F068
:1003E000CA81CB49E1E1202B00F07581402BF8D187
:1003F0005B212046FFF7B0FF2D68002D00F06381E0
:1004000021462846FFF7D0FF2846FFF7D4FE0546D1
:10041000002800F058812C212046FFF79DFFECE7D3
:10042000D0E9008942464B46404649460FF05AFB08
:100430000028D6D000220023404649460FF052FB48
:1004400068B942464B46404649460EF02DFF0246EB
:100450000B46404649460FF045FB0028C1D100221B
:100460000023404649460FF047FB30B12D2120467E
:10047000FFF772FF09F100439946A1A3D3E90023D6
:10048000404649460FF04CFB002867D0A14FDFF8EB
:1004900088B208264FF0000A4FF48075314602A852
:1004A0000297FFF7B2FE02460B46404649460FF060
:1004B00037FB80B1314602A8CDF808B0FFF7A5FEA2
:1004C00002460B46404649460FF0A4F8AA4480462F
:1004D00089460FFA8AFA16F1FF364FEA6505DDD232
:1004E000019600220023404649460FF023FB0028D6
:1004F0003AD085A3D3E90023404649460FF006FBD6
:1005000090B30027019BA3EB070B1BF0800F2BD1AF
:1005100008AE814B46F8183D59463046FFF775FE48
:1005200000227E4B0FF076F842464B460FF002FB5E
:1005300088B1784B029359463046FFF766FE024673
:100540000B46404649460FF065F8AAEB050A80467F
:1005500089460FFA8AFA6D100137D3E708234FF462
:10056000807501938246BCE7494640460FF002FB86
:100570006B4F0546024609230A215EB2092A03F1A0
:10058000FF33DBB204D9B7FBF1F7B2FBF1F2F4E7CA
:1005900028460EF0C5FF02460B46404649460EF07F
:1005A00081FE8046384689460EF0BAFF02460B4669
:1005B000404649460FF02EF8804689460FF0DAFA99
:1005C00083460EF0ADFF02460B46404649460EF00C
:1005D00069FE02460B460EF067FE0FF0CBFA00EB09
:1005E0000B0847450CD80135BAF1000F14D0092D7E
:1005F00012D90AF1010A0FFA8AFA4FF00008012510
:100600000A22B8FBF2F302FB138141B9002E06DD8A
:10061000013E984676B2F4E74FF00008F0E70DF19E
:100620001E010A22B5FBF2F302FB1355303501F827
:10063000015D1D46002BF5D10DF11E077A1A2046EB
:10064000FFF7EFFDE6B106AA334611460A25013B46
:100650005BB2581C09D0B8FBF5F005FB108808F117
:10066000300802F8018D8046F1E7F6B2F3438E1BA5
:100670002E2206F8012C19445A422046FFF7D1FDDC
:10068000BAF1000F23D065212046FFF765FEBAF1CD
:10069000000F1FFA8AF505DA2D212046FFF75CFED0
:1006A0006D42ADB239460A22B5FBF2F302FB135597
:1006B000303501F8015D9DB2002DF5D17A1A204642
:1006C000FFF7AFFD03E05D212046FFF745FEA06A7E
:1006D00009B0BDE8F08F7B212046FFF73DFE2D6875
:1006E000B5B322212046EE68FFF736FE013E16F82C
:1006F000011FB9B12046FFF737FEF8E7AFF30080DE
:1007000000000000D0126341F168E388B5F8E43ED0
:1007100038520200D85102009051020000002440DB
:1007200000CA9A3B22212046FFF716FE3A212046B6
:10073000FFF712FE21462846FFF736FE2846FFF750
:100740003AFD054620B12C212046FFF705FEC7E7FC
:100750007D21B9E7D0E9006522212046FFF7FCFDA5
:100760003544AE4205D016F8011B2046FFF7FCFDCC
:10077000F7E72221A8E7D0E90067002E77F1000310
:100780000ADA2D212046FFF7E7FD724267EB4703A7
:100790002046FFF763FD9AE732463B46F8E7D0E98B
:1007A0000023F5E7037823B103492046FFF74AFD0C
:1007B0008DE70249F9E700BF3D52020042520200B4
:1007C00016481749F8B500F12803164C164F174D77
:1007D000174EC0E9003300F1F003C0E902330023F3
:1007E000037480F82030224608F05BFE114800F0C8
:1007F00071FD3946284602F0B3FC28460E4D2246CC
:10080000314608F04EFE3946284602F0A9FC224641
:1008100031462846BDE8F84008F043BE20100020CD
:10082000B5010100000200203052020048110020F2
:10083000CB300100101100203C11002038B5054CD0
:100840000546204600F091FF29462046BDE8384085
:1008500002F0C6BB101700201FB504460B4801F07C
:1008600017F930B90A49204602F07AFC204604B054
:1008700010BD01A8054902F009FC01A9204602F0BB
:1008800019FC01A802F021FCF0E700BF10170020BE
:100890003052020010B530488AB000F055F918B94E
:1008A0004FF0FF300AB010BD2B4800F060F900286F
:1008B000F6D006AB05AA04A92748284C00F09AF9FF
:1008C00009AB08AA07A9244800F0DCF9DDED067A97
:1008D0009DED096ADDED086A9DED077AFDEEE77A88
:1008E000BDEEC66AF8EEE77AFDEEE66ACDED027A75
:1008F000DDED057AFDEEE77ABDEEC77AF8EEE77A30
:100900002046CDED017ADDED047AFDEEE77AF8EED2
:10091000E77ACDED007AF8EEC67A17EE903AF8EE67
:10092000E67A17EE902AF8EEC77A17EE901A00F0E2
:1009300003FD94F8243013B9204600F00BFED4EDEB
:10094000086A9FED077ADFED077AE6EE877AFDEE1B
:10095000E77A17EE900AA5E7541100201011002045
:10096000E12E654200003443F0B5B5B0FFF792FFC9
:100970003A4C206029A8FFF76FFF29A9384802F0F8
:100980003AFC29A802F0A1FB3649374802F039FCAD
:10099000364A3749246802F11800FFF785FC40B158
:1009A000037AE51723F07F03C0E9004543F00A030B
:1009B00003722D4F019701AD0FCD0BAC0FC40FCDBE
:1009C0004FF0000C0FC4CDF828C095E8030084E870
:1009D00003000BAE0FCE15AD0FC50FCE0FC594E8BB
:1009E000030085E8030015AE0FCE1FAC0FC40FCE79
:1009F0000FC495E803001FAE84E803000FCE29ADB5
:100A00000FC50FCE0FC594E8030085E803001FA8AB
:100A1000CDF8CCC0FFF7D7FB15A8FFF7D4FB29A969
:100A20001448FFF7C1FC29A8FFF7CDFB0BA8FFF77F
:100A3000CAFB01A8FFF7C7FB0F49094802F029FCD0
:100A400048B1394629A802F0CCFB29A8FFF7F6FEE9
:100A500029A802F03AFB35B0F0BD00BF38110020E4
:100A600048110020305202003C11002020100020CC
:100A700048520200381000204D52020008B51148BB
:100A80004FF4964100F0CEFE0F4800F0CCF920B9AB
:100A90000E490C4802F0AEFAFEE70D4B0D4A5A61C2
:100AA0000D4A0E4902F11800FFF7FEFB48B1037A28
:100AB00023F07F0343F00A03037200220023C0E9FE
:100AC000002308BD101700205411002051520200CD
:100AD00010110020D9891D3C20100020485202002E
:100AE00070470000004870470000EE420048704721
:100AF0000000A04110B50C21044608F0F3FE20468A
:100B000010BD70B5044680680368DB6A16460D4662
:100B10009847A068036831461B689847A068036837
:100B20005B6B984768B9A06803680122DB6B2946B4
:100B30009847012805D1A0680368BDE870405B694B
:100B400018474FF0FF3070BD08B5037943B12F222D
:100B50006B21FFF7D6FF10F03F0018BF012008BD42
:100B600017226B21FFF7CDFF00F00100F7E708B572
:100B700017226B21FFF7C5FFC0F3400008BD08B581
:100B800027221E21FFF7BDFFC0F3C00008BD2DE9DD
:100B9000F04105468068069F1E460368DB6A1446DE
:100BA00088469847A868036844F080019B6C984782
:100BB000A868036800211B6B9847044688B9A86899
:100BC00003683A46DB6B41469847B8420DD134186A
:100BD000A6420CD0A86803685B69984706F8010B29
:100BE000F6E74FF0FF30BDE8F0812046FBE701203B
:100BF000F9E700007FB51C4606230E461546009314
:100C0000282202AB6B21FFF7C2FF28B91B4B3360D0
:100C10002B60236004B070BDBDF908000EF090FC9D
:100C20000022174B0EF0F6FC00224FF07C530EF022
:100C3000F1FC0EF0BFFF3060BDF90A000EF080FC41
:100C400000220F4B0EF0E6FC00224FF07C530EF01A
:100C5000E1FC0EF0AFFF2860BDF90C000EF070FC57
:100C60000022074B0EF0D6FC00224FF07C530EF012
:100C7000D1FC0EF09FFF20600120CBE70000C07F79
:100C8000000010407FB51C4606230E461546009313
:100C9000182202AB6B21FFF77AFF28B91B4B336098
:100CA0002B60236004B070BDBDF908000EF048FC55
:100CB0000022174B0EF0AEFC00224FF07C530EF0DA
:100CC000A9FC0EF077FF3060BDF90A000EF038FC89
:100CD00000220F4B0EF09EFC00224FF07C530EF0D2
:100CE00099FC0EF067FF2860BDF90C000EF028FC9F
:100CF0000022074B0EF08EFC00224FF07C530EF0CA
:100D000089FC0EF057FF20600120CBE70000C07F78
:100D100000409F407FB51C4606230E4615460093B3
:100D2000282202AB1E21FFF732FF28B9214B336086
:100D30002B60236004B070BDBDF908000EF000FC0C
:100D400000221D4B0EF066FC00221C4B0EF062FCD4
:100D500000224FF07C530EF05DFC0EF02BFF306054
:100D6000BDF90A000EF0ECFB0022134B0EF052FC12
:100D70000022124B0EF04EFC00224FF07C530EF07E
:100D800049FC0EF017FF2860BDF90C000EF0D8FBEF
:100D90000022094B0EF03EFC0022084B0EF03AFCFC
:100DA00000224FF07C530EF035FC0EF003FF206064
:100DB0000120BFE70000C07F000010400000594044
:100DC00070B5044680681D460368DB6A164698477E
:100DD000A068036831461B689847A06803682946E5
:100DE0001A689047A06803685B6B9847B0FA80F078
:100DF000400970BD10B50323044622221E21FFF7CF
:100E0000DFFF002310226B212046FFF7D9FF0023CC
:100E1000204620226B21FFF7D3FFA0680368BDE8BE
:100E200010405B6A184710B5044680680368DB69A8
:100E30009847052322226B212046FFF7C1FF0C2390
:100E400021221E212046FFF7BBFF0A2002F07CFA78
:100E50000F226B212046FFF754FE682804D020465D
:100E6000FFF7C8FF002010BD0F221E212046FFF70C
:100E700048FE3D28F3D1782310226B212046FFF74E
:100E80009FFF702320226B212046FFF799FFB42398
:100E900020221E212046FFF793FF002321221E213E
:100EA0002046FFF78DFF002322221E212046FFF758
:100EB00087FF0120D7E700000548064B03600023A9
:100EC0000371054A054B0649836008F0EABA00BF82
:100ED0005411002074520200000200209C130020D4
:100EE000E10A01000020704770470368C9B21B681F
:100EF000184749000023C161C0F82C3270470368CD
:100F000001211B6B184710B403689C6B0123A44696
:100F10005DF8044B6047D0F82C32B3F5807F1FBFDB
:100F20005A1CC0F82C22C01880F82C1114BF0120C4
:100F300000207047D0F8280170477047C0F8301281
:100F40007047C0F834127047D0F82831A3B1D0F8F8
:100F500028318BB1D0F82431D0F824210344013258
:100F6000D2B293F82030C0F82421D0F82821013AD9
:100F7000C0F82821184670474FF0FF307047D0F86E
:100F800028312BB1D0F82431184490F82000704754
:100F90004FF0FF30704738B503685B6A04469847E6
:100FA000A82008F089FC94F9192094F91810054636
:100FB00004F0BAFE656138BD70B5036886B05B6A3F
:100FC00005460E469847482008F076FC95F919200A
:100FD00095F91810044604F0E1FE710020462C61DA
:100FE00004F0F8FEBC2008F067FC0026134B0360F9
:100FF000044631460661403008F084FE04F1540096
:1010000008F01EFE0E4B00934FF400623346182189
:10101000204608F011FF0B4B05930B4BC5F83842E7
:1010200002A92046CDE90336029508F011FF059B81
:1010300013B19B6802A8984706B070BDE86B020028
:10104000AC520200A0520200991101000B6803602B
:101050004B6843608B688360704738B5D0F82C329A
:1010600014461A44B2F5807F88BFC3F580740546E4
:1010700000F596702246184410F094FCD5F82C32F6
:101080002344C5F82C32204638BD38B504464069A3
:101090000D4608B104F06CFD206920B12946BDE879
:1010A000384004F095BE38BD10B50446406920B103
:1010B0000368DB6898470023636123699BB1D4F818
:1010C000380208F035FFD4F8380208F07BFFD4F876
:1010D000380210B103685B6898474821206908F01E
:1010E00001FC0023236110BD1FB50246D0F82C324D
:1010F000D469406981F0010100913BB9012303AA41
:10110000214604F066FDC0B204B010BD02F596722F
:10111000214604F03FFD002814BF02200020F3E721
:1011200070B5C2B083F00103009302AE04461546C9
:10113000134649003246406904F04BFDC8B9A84245
:1011400018D0D4F82831B3F5807F10D0D4F82031EE
:10115000325C234483F82020D4F820310133DBB201
:10116000C4F82031D4F828310133C4F828310130D3
:10117000E5E70025284642B070BD10B4D0E901343F
:1011800001686210E40701EB020048BF8A585DF86D
:10119000044B48BFD358184730B50446BDB00025AE
:1011A000206904F01EFE0328FAD8DFE800F04C02A4
:1011B0001414D4F8343203B19847D4F82C2232B145
:1011C00004F59671206904F010FEC4F82C522069D1
:1011D00004F013FEE4E7C4F82051F022C4F82451CF
:1011E0006946C4F82851206904F0FDFD00228242BE
:1011F0001DDAD4F82831B3F5807F18D0D4F828311F
:10120000B3F5807F11D0D4F820311DF802102344AB
:1012100083F82010D4F820310133DBB2C4F8203138
:10122000D4F828310133C4F828310132DFE7D4F88B
:101230002831002BB4DDD4F83032002BB0D0D4F8F4
:1012400028019847ACE702F08FF8A9E738B50025E8
:101250004FF47A730446C0E901530D4B0360C0E9B3
:1012600004550176427629464FF48072203010F002
:1012700097FCC4F82051C4F82C52C4F82451C4F887
:101280003052C4F82851C4F83452204638BD00BF4B
:10129000C052020010B5122002F02AF804461320B2
:1012A00002F026F8214602460848FFF7CFFF1E202D
:1012B00002F01EF804461F2002F01AF821460246EA
:1012C000BDE810400248FFF7C1BF00BF6011002019
:1012D0009C130020074A02604FF07E5242600022B9
:1012E0008260C26002614FF06C524261002280F85D
:1012F00024207047CDCCCC3D0E4B07EE100AA3EB5B
:101300006003F6EE007A06EE903A67EE277AB7EEC3
:10131000086A26EEA77AF0EE465AE6EEC75A25EEA0
:10132000A67A67EE277AA7EE676A66EE077A17EE67
:10133000900A7047DF59375F9FED857A90ED022A5A
:10134000D0ED032AD0ED013A90ED044A07EE901A51
:1013500010B527EE876A06EE903A07EE902A67EE00
:10136000877A26EE877A2DED0C8B22EE870A27EE00
:10137000E28A67EE420A62EE271AA2EE468A044625
:10138000A3EE860AE3EEA70AE3EE871AF1EE445ACB
:101390009DED0E3ADDED0F4A9DED10AAA5EE878A70
:1013A000A5EEA70AE4EE060AE2EEC61AB5EE403A4A
:1013B000F6EE006AF1EE10FA28EE268A20EE260AF2
:1013C00060EEA60A61EEA61A0AD1F5EE404AF1EEE9
:1013D00010FA05D1B5EE40AAF1EE10FA00F08A80BD
:1013E00064EEA47AB1EE009AE3EE037AB2EE00BAAC
:1013F000EAEE0A7A17EE900AFFF77EFF06EE100A71
:1014000074EE04BA63EE066A22EE095A2AEE06AAC0
:1014100024EE04CA26EE646A6BEEE64A72EEA28AF5
:1014200063EEA3CAE5EE0C4A62EEA25A23EE897A75
:1014300026EEA81A6CEE89CAA7EE251AE2EE2C4A0F
:1014400062EE029A73EEA37AA7EE291AB0EE647ADE
:10145000A6EE277A22EE0BDA77EE454A62EE89AAEB
:10146000EDEE294A22EE8BBAEDEE254A32EE023A33
:10147000EAEE054A26EEA75AA6EE031AA2EEAC5AE9
:1014800023EE663AAAEE8C5A64EEA47AA6EE2B5AA4
:10149000E1EE017A35EE6A5AABEE295A69EE899A85
:1014A000ABEE255AA4EE293A65EE895AAAEE2A5ADD
:1014B000A4EE253AE5EE057AA6EE283AE3EE037AA5
:1014C00017EE900AFFF718FF07EE100AD4ED007A26
:1014D00021EE071A64EE874A25EE075A23EE073AF3
:1014E000F1EE677AA7EE818AA7EEA40AE7EE850AF5
:1014F000E7EE831AD4ED057AA7EE802AE7EE883A64
:10150000E7EEA02AA7EEA14A62EE027AE3EEA37A02
:10151000E2EEA27AE4EE047A17EE900AFFF7ECFE10
:10152000BDEC0C8B07EE900A63EEA73A62EE274AF9
:1015300022EEA75A24EE274A0023C4ED013AC4ED57
:10154000024A84ED035A84ED044A84F8243010BD25
:1015500039FA8E3C10B590ED027AD0ED036AD0EDE9
:10156000047A90ED016A2DED028BB6EE008AF0EE62
:10157000485AE7EE475A044666EEA77AE6EEE65A80
:10158000E6EE077A15EE901A17EE900A0EF08CFD33
:1015900094ED017AD4ED037AD4ED026AA06167EE8E
:1015A000C77A94ED047AE6EE877AB8EE007A67EEB1
:1015B000877A17EE900A0EF01DFD94ED037AD4EDB4
:1015C000046AD4ED017A94ED026AE061A7EE478ADD
:1015D00066EEA77AA6EEE68AE6EE077A18EE101A0D
:1015E00017EE900A0EF060FDBDEC028B0123206225
:1015F00084F8243010BD30B5A1F11004002500F0AE
:101600000F02D3B2092ACCBF373330338B73CD737B
:1016100002398C424FEA1010F1D130BD22207047C0
:1016200030B5012185B0192001F0EAFE0121192011
:1016300001F024FF4FF080430022C3F85C2503F53E
:1016400088334FF48032C3F848230121C3F80823BC
:10165000212001F0D5FE0121202001F0D1FE012141
:10166000212001F00BFF0121202001F007FF104B8A
:1016700001221A600F4A1368002BFCD00E4B002485
:10168000C3F80045C3F800450C4B0FCB6D4685E809
:101690000F00234620464FF0FF3155F82320013339
:1016A000042BC2F80005C2F86015F6D105B030BDB4
:1016B000042000404421004000200040105302005C
:1016C00038B54FF0805504462146D5F8A800FFF7FD
:1016D00092FFD5F8A40004F11001FFF78CFF202041
:1016E00038BD000072B64FF08043B022C3F81C250D
:1016F000BFF34F8F0549064BCA6802F4E0621343FB
:10170000CB60BFF34F8F00BFFDE700BF00ED00E0EF
:101710000400FA05C3680BB19B681847704770B5A1
:1017200090F8343105461446F3B90368DB699847ED
:1017300004F47063B3F5407F04F0F0030CBF07219D
:10174000082104F00F02302B0CBF02230123012AD1
:1017500008D0901E42424241A869BDE8704000682E
:1017600004F04CBC0222F7E770BD10B590F834319C
:1017700004462BB9A369186804F098FC0028F9D036
:1017800010BD38B590F834510446A5B983695BB1F2
:10179000186848B10368DB689847A3691D60042195
:1017A000A06908F09FF8A5610023C4F82431C4F8AB
:1017B0002831C4F82C3138BD13B590F834310446C3
:1017C0006BBBA369186804F031FC40B307F034FB2D
:1017D000A3691868036801225B690DF10701984746
:1017E000D4F82C31B3F5807F16D0D4F82C31B3F572
:1017F000807F11D0D4F824319DF80720234483F84A
:101800002420D4F824310133DBB2C4F82431D4F8D5
:101810002C310133C4F82C3107F024FBD1E702B09E
:1018200010BD00007FB590F8343104460D46002B02
:1018300034D1866926B9042008F03EF8A06106601C
:10184000A369186860BB4FF4867008F035F82B4622
:1018500094F9212094F92010064604F0CDFEA369E6
:101860001E6094F92220531C06D0A06994F92330FD
:101870000068032104F0D0FEA369186870B10A4B18
:1018800003930022094B019369460094029204F0ED
:101890002AFC039B13B19B686846984704B070BD4F
:1018A000294604F097FBDCE720530200B91701003A
:1018B00010B4D0E9013401686210E40701EB0200C2
:1018C00048BF8A585DF8044B48BFD35818470000FA
:1018D00008B590F834313BB1012001F035FD0648E0
:1018E000BDE8084001F028BA82691AB113680033D4
:1018F00018BF0123184608BDDC1D002070B5044642
:101900000D4601F019FA30B12368294620461B6CB8
:10191000BDE87040184770BDA0F5A070EEE700006C
:1019200013B590F834318DF8071004462BB1C9B2C5
:101930000B48FFF7E3FF02B010BDA369186804F07D
:10194000B5FB0028F9D0A3691868036801221B6958
:101950000DF107019847013018BF0120EBE700BFE8
:10196000DC1D00202DE9F04107468846164601F0AF
:10197000E3F970B10024A6420CD9351B402D28BFD5
:10198000402508EB04012A46384600F0BBFE2C44F3
:10199000F1E704462046BDE8F081A0F5A070E1E73C
:1019A00070B590F8343105460E4614462BB11048F8
:1019B000FFF7D8FF0446204670BDAB69186804F0F5
:1019C00075FB0028F9D0AB691868D0F808310121FF
:1019D0001B6B00F584709847AB6918680368224652
:1019E0001B6931469847013008BF0024E3E700BF78
:1019F000DC1D002030B50446C3B001F017F9D4F85F
:101A00005832C3F5807398420546C4BFD4F8585283
:101A1000C5F580752A4601AB02A9204600F05CFF9F
:101A2000019902AB6D1A00221D44D4F85832B3F567
:101A3000807F19D08A4217D0D4F85832B3F5807F0E
:101A400010D0D4F85032A85C234483F85001D4F865
:101A500050320133DBB2C4F85032D4F8583201337B
:101A6000C4F858320132E0E743B030BD38B504461F
:101A700000F0F0FA2046FFF7BDFFD4F85852204698
:101A800000F0F0FA284638BDA0F5A070EEE700009F
:101A900010B590F8343104462BB10648FFF7E6FF45
:101AA0000446204610BD07F0C7F9D4F82C4107F0D2
:101AB000D9F9F6E7DC1D002038B5044600F0CAFA73
:101AC0002046FFF797FFD4F858324BB1D4F8543280
:101AD000234493F85051204600F0C4FA284638BDFC
:101AE0004FF0FF35F7E7A0F5A070E5E710B590F8E7
:101AF000343104462BB10B48FFF7DEFF0446204685
:101B000010BD07F099F9D4F82C313BB1D4F8280175
:101B1000044494F8244007F0A5F9F0E74FF0FF34AF
:101B2000F9E700BFDC1D002038B5044600F092FA4A
:101B30002046FFF75FFFD4F85832A3B1D4F85432EF
:101B4000234493F85051D4F854320133DBB2C4F833
:101B50005432D4F85832013BC4F85832204600F0D1
:101B600081FA284638BD4FF0FF35F7E7A0F5A070A1
:101B7000DAE7000010B590F8343104462BB1114873
:101B8000FFF7D2FF0446204610BD07F055F9D4F800
:101B90002C319BB1D4F82831234493F82400D4F895
:101BA00028310133DBB2C4F82831D4F82C31013BA1
:101BB000C4F82C31044607F055F9E4E74FF0FF3440
:101BC000F9E700BFDC1D002008B54FF4807200214A
:101BD0000FF0E6FF0022C0F80021C0F80421C0F891
:101BE000082108BD2DE9F047194C1A4F2760002540
:101BF0004FF47A78C4E90158202604F12400C4E99E
:101C00000565E5614FF00109FFF7DEFF284684F81E
:101C1000349101F06DFB8246484601F069FB0E4CA1
:101C2000FF2384F82100C4E9015804F1240027604F
:101C3000C4E90565E56184F820A084F8223084F8C1
:101C40002330FFF7C1FF84F83451BDE8F08700BFAF
:101C50001017002034530200D815002000207047D0
:101C60007047704710B5D0F88C452CB123682046DA
:101C70005B689847A468F8E710BD38B5D0F88C4584
:101C80000D4634B1236820469B6829469847A468CE
:101C9000F7E738BD00487047F453020010B5054B14
:101CA0000360044605F0AFFF204605F0C5FF20465F
:101CB00010BD00BF7453020010B50446FFF7EEFFDD
:101CC00020464FF4B26107F00DFE204610BDF7B577
:101CD000D0F88C4505460E460023A4B12368314652
:101CE000DF680DF1030201AB2046B8479DF80310F1
:101CF0000429034605D0019A284605F0E1F903B00E
:101D0000F0BDA468E9E7019A9DF80310F4E770B507
:101D100005460E4622B10021BDE8704004F0DCBF4C
:101D2000D0F88C455CB1236800221B6931462046FF
:101D3000984710B101212846EEE7A468F2E7214652
:101D4000F9E770B5D0F88C450E46054600213CB148
:101D50002368314620465B699847A4680146F6E748
:101D60002846BDE8704005F0ABB8F8B5D0F88C4512
:101D700005460E4617463CB1236820469B693A4605
:101D800031469847A468F6E728460121BDE8F840A7
:101D900005F0F4B870B5002186B0044605F08CFB60
:101DA0000023ADF8063023898DF810301B0AA18876
:101DB000E2888DF811304FF4897540F20123ADF8B7
:101DC0000450ADF81230022540F20313EF268DF8CF
:101DD00007508DF809508DF80C100125090A8DF86F
:101DE0000E20ADF81430120A04F10A038DF80860D1
:101DF0008DF80A508DF80B008DF80D108DF80F201E
:101E000001AD05AE1C462A4603CAB24218605960AD
:101E1000154603F10803F6D112881A80204606B051
:101E200070BDF8B5002406460D462746304610F032
:101E3000A7FAA04207D9335D05F8143005EB440337
:101E400001345F70F2E7400000F0FE00F8BD38B5E5
:101E5000D0F88C55044635B12B6828461B6A984744
:101E600010B9AD68F7E7284640F20233A4F84835C8
:101E700004F24A51FFF7D5FF94F84835184484F826
:101E8000480504F5A96038BD40F2023310B500F2F0
:101E90000A510446A0F808350548FFF7C2FF94F838
:101EA0000835184484F8080504F5A16010BD00BF8A
:101EB0006053020040F2023310B50446A0F8C83463
:101EC00000F2CA40FFF7FCFB94F8C834184484F8C9
:101ED000C80404F5996010BD2DE9FF4100238DF879
:101EE0000A3090F888351B4A8DF80830012301929A
:101EF0008DF809303222C0238DF80B308DF80C207C
:101F000001AB044600F54E7803CBC4F83803C8F89B
:101F1000041088F80820D4F88C6509258EB1336840
:101F200000211B6830469847478805F54E73093FE6
:101F300000F109013A46E0180FF034FD3D44B6685F
:101F4000ECE784F83A5340462D1284F83B5304B032
:101F5000BDE8F0810902FFFF73B504460D46164641
:101F600008F01AFA4FF480730093014633462A466C
:101F7000204605F067FA024B2360204602B070BD90
:101F80007453020010B5D0F88C350446A3B9C0F8DC
:101F90008C1594F888350B7194F888354A79134478
:101FA00084F888350B6808465B6A9847238918448B
:101FB0002081012010BD13469A68002AFBD1996048
:101FC000E7E71FB5044605F037FA0146684604F016
:101FD000DFFB4021684604F04DFCD4F88C4534B159
:101FE00023682046DB6969469847A468F7E7684696
:101FF00004F0D5FB04B010BD10B50446FFF7E1FFB7
:102000002046BDE8104005F088B9000010B50D4C21
:102010002378BFF35B8FDB0712D4204607F054FA16
:1020200070B148F25A0242F241310748FFF794FF7B
:10203000204607F06BFA054A0549034807F031FAD4
:10204000014810BD481800204C1800200002002054
:102050009D1C010010B5FFF7D9FF0368BDE81040D3
:102060005B6F184710B5FFF7D1FF0368BDE810405C
:102070009B6F184710B5FFF7C9FF0368BDE8104014
:10208000DB6F184704F008BD04F01CBD04F0F4BC7D
:10209000704770477047436A93F878007047D0F8EC
:1020A0002401704701207047004870475C550200CA
:1020B0002DE9F04F044697B00F464B22002103A8AC
:1020C0000FF06EFDD4F82431267994F80EA094F820
:1020D0000C90002B06F10105637B019314BF0520D2
:1020E0000020EDB2002F40F0978040F20923ADF8B8
:1020F0000C304FF48173ADF8103080238DF813301D
:1021000032238DF8143008238DF815300B2301216C
:102110008DF816308DF8250040F2022342F205407A
:102120004FF0240C4FF0090E04274B22ADF8183065
:102130008DF8211002238DF82410ADF826004FF001
:10214000100805208DF82A108DF82D108DF82F100D
:102150004FF0030B06218DF80E208DF817608DF8D7
:102160001A308DF81DE08DF81F608DF822308DF843
:1021700023308DF82B008DF82CC08DF831C08DF8F0
:1021800032308DF833108DF834008DF835C08DF86D
:102190001E708DF829808DF82EB08DF830708DF876
:1021A000361007218DF839108DF8491044F20201DC
:1021B000ADF84C1040F20751ADF850101D349DF8A9
:1021C00004108DF837608DF838508DF83A008DF88E
:1021D00042508DF84A008DF852108DF8533044F279
:1021E0000306402340F6022503A920468DF83BA0B4
:1021F000ADF83C608DF83F808DF840E08DF841707F
:10220000ADF844508DF84B908DF854300FF0CAFB68
:10221000204617B0BDE8F08F0020FAE738B5054634
:102220000A4B45F8D03B0446FFF7F0FE05F0EBFC07
:10223000284604F0B9FB04F17C0004F0B5FB04F17E
:10224000700004F0B1FB204638BD00BF1C550200F1
:1022500010B50446FFF7E2FF20464FF4947107F0F3
:1022600041FB204610BDFFF705BF000010B5034B32
:102270000360044604F014FA204610BD3C540200EA
:1022800010B50446FFF7F2FF2046282107F02AFB8D
:10229000204610BD10B5034B0360044604F000FA5D
:1022A000204610BD0C54020010B50446FFF7F2FFA3
:1022B0002046342107F016FB204610BD10B5034B15
:1022C0000360044604F0ECF9204610BD24540200DB
:1022D00010B50446FFF7F2FF2046382107F002FB55
:1022E000204610BD38B51C4B0D461968C0F80F10BC
:1022F00099889B7943750446A0F813104022022167
:10230000284604F0ADFA402220730221284604F04A
:10231000ACFA402260730321284604F0A1FAA073AE
:10232000284604F03DFA20B9AF220C490C4806F0CB
:10233000D3FC002304F18502C4E9322304F1D9025D
:1023400084F8783084F8843084F8D830C4F81C21BC
:10235000C4F8203138BD00BF58540200F7540200C1
:10236000025502002DE9F34104460E461546FFF7DB
:1023700081FEF28823799A4237D1002D35D17778C2
:10238000012F2ED1F378202B27D13289072A24D18F
:1023900004F10F0804F11605294640460FF0D0FA63
:1023A000D0B1D4F81630C4F80F30207CE17B638BB9
:1023B000A4F8133001EB0021607CE57C237F0095BD
:1023C00001EB00412568A07C637501EB0061237D72
:1023D000627D6D6B2046A8473D46F378212B08BFF0
:1023E0000125284602B0BDE8F0810025F9E710B5C7
:1023F0000446FFF73FFEFFF709FE217B05F0A0FA38
:1024000004F18503C4F8C8300023C4F8CC3084F844
:10241000843004F17C0004F07CFA94F884302BB909
:1024200023682046DB6BBDE81040184710BD000054
:1024300070B50446FFF71EFED4F820512DB140F2CE
:10244000DD120F490F4806F047FC04F1D903C4F828
:102450001C31FFF7DBFD617B05F0D0F984F8D85023
:10246000C4F8200104F1D00004F053FA94F8D830F5
:102470002BB9236820469B6BBDE87040184770BDA0
:10248000F75402006454020010B4D0E9013401682A
:102490006210E40701EB020048BF8A585DF8044B64
:1024A00048BFD35818470000F0B5044687B002ADC6
:1024B000FFF7E0FD0026FFF7A9FDA17B00950323B0
:1024C0004022059604F042FF2846FFF723F9FFF764
:1024D0009DFD164B217B164F00954022CDE903361A
:1024E00002230597029404F031FF2846FFF712F902
:1024F000FFF78CFD0F4B617B00954022CDE9033641
:1025000002230597029404F021FF2846FFF702F901
:10251000FFF77CFD4023D4F81C21617B05F010F906
:10252000012084F8D80007B0F0BD00BFEF23010000
:102530004C5402003124010038B5022343710023BA
:1025400083600C4B044640F8703B154604F0D4F908
:1025500004F17C0004F0D0F904F1D00004F0CCF9CF
:10256000C4F82451FFF752FD2146FFF70BFD20462A
:1025700038BD00BF1C55020070B504460D46FFF77C
:1025800079FD84F87850002D3ED194F8843033B131
:10259000FFF73CFD217B04F0ABFF84F8845004F18D
:1025A000850304F17C0600253046C4F8C830C4F821
:1025B000CC5004F0AEF9304604F0A4F928B915491E
:1025C00015484FF4A27206F087FB94F8D83033B167
:1025D000FFF71CFD217B04F08BFF84F8D85004F139
:1025E000D903C4F81C3104F1D00500232846C4F8EF
:1025F000203104F08EF9284604F084F920B94FF414
:10260000A77204490548DEE704F17000BDE8704098
:1026100004F07FB9F75402007254020083540200A0
:1026200010B50446FFF726FD20460021BDE8104006
:10263000FFF7A2BF38B50D460446FFF71BFD042D7A
:1026400005D020460021BDE83840FFF795BF38BDD2
:10265000F8B5164604460D461F46FFF70BFD04234A
:102660003370EA8823799A4225D16978012922D1E9
:10267000EA78212A08D0222A0BD0202A4FF0000025
:102680001BD13070163401E031700F343C600720EC
:10269000F8BDAB8813F0010308BF19462046FFF7C9
:1026A0006BFFAB8803F00103E366AB8803F0020322
:1026B000A366022333700020EAE703233370E7E7C1
:1026C00010B58AB00446FFF7C5FC684603F0DCFF8E
:1026D0000A4B0093694604F17000099404F031F943
:1026E0002046FFF7BFFC064B00211A68684604F03D
:1026F00015F86846FFF7BAFD0AB010BD3C54020059
:102700006054020070B58EB0154604460E46FFF7C1
:10271000A1FC01A803F0B8FF0E4B0C9501A9002500
:1027200004F17C000193CDE90A468DF8345004F0A1
:1027300008F92046FFF796FC074B29461A6801A8BE
:1027400003F0ECFF01A89DF83440FFF7A3FD2046FD
:102750000EB070BD0C5402006054020010B5044667
:10276000FFF788FC94F884307BB9D4F8CC3063B19F
:10277000FFF74CFCD4F8CC30217B04F1850205F046
:102780007DF810B1012384F8843010BD2DE9F843A1
:102790001E460446894690469DF82070FFF75AFC75
:1027A0000023336094F87830E3B194F88430CBB9E7
:1027B000D4F8CC50C5F14005454528BF4546B8F191
:1027C000000F05D02A464946D4F8C8000FF0EAF8B1
:1027D000D4F8CC302B44C4F8CC30356017B1204647
:1027E000FFF7BCFF2046BDE8F843FFF73BBCF0B560
:1027F0000446406A90F8785085B001262DB984F8D7
:1028000030503546284605B0F0BD04AB002743F8EC
:10281000047DD4E90A120096FFF7B8FF0399E36A32
:10282000A26A5B1A0A44E362A26213B984F83060B8
:10283000E8E7606AFFF792FF3D46E3E72DE9F043E2
:102840001C4691B0904606468946FFF703FC002CD3
:1028500008BF01AC4FF00005256002A80CBF01279E
:10286000002703F011FF104B029302A906F1D000DC
:10287000CDE90D84CDE90B698DF83C708DF83D50A4
:1028800004F05FF83046FFF7EDFB084B29461A6865
:1028900002A803F043FF02A89DF83D40FFF70EFD9C
:1028A000204611B0BDE8F0832454020060540200B9
:1028B00010B5D0F8203104466BB990F8D83053B930
:1028C000FFF7A4FB402304F1D902617B04F038FF39
:1028D000012384F8D83010BD70B51E46044600238D
:1028E000336094F878300846EBB194F8D830D3B917
:1028F000D4F82051D4F81C11954228BF15462A4619
:102900000FF050F83560D4F81C31D4F820212B4456
:10291000551BC4F81C31C4F8205125B92046BDE828
:102920007040FFF7C5BF70BD37B50446406A90F8E8
:1029300078502DB984F835500125284603B030BDB4
:1029400002AB002243F8042DD4E90A12FFF7C4FFBA
:102950000199A26A0A44A262226B13680B441360B5
:10296000E36A01995B1A94F83410E36209B91268BA
:1029700002B91BB9012384F83530DEE7606AFFF73E
:1029800097FF0025D9E76FF01500704700290CBFAD
:102990006FF0180000207047012070476FF015009D
:1029A00070476FF0150070471120704770477047EF
:1029B000704703689B6C1847A0F5A070F9E7704753
:1029C0007047704770470368184710B504460120E8
:1029D00000F0BAFC94F8780010BDA0F5A070F4E700
:1029E00038B54FF0FF320123FF210B480B4D07F0A4
:1029F00001F900F097FC044695F878301BB10120EE
:102A000000F0A2FCF8E700F08DFC001BC728F6D907
:102A1000BDE83840FEF766BE94200020DC1D002093
:102A200007B502AB012243F8041D1946FFF76AFE01
:102A300018B1019803B05DF804FB4FF0FF30F9E7DF
:102A4000A0F59470FFF7ECBF07B502A9002301F8C9
:102A5000013D0122FFF7F2FE20B19DF8070003B00F
:102A60005DF804FB4FF0FF30F9E7A0F59470FFF735
:102A7000EBBF2DE9F8430446884617461E46089DDD
:102A8000FFF7F8FAD4F87092B9F1000F04D02B4692
:102A9000324639464046C847C4F86082C4F864727A
:102AA000C4F86862C4F86C52BDE8F88370B5064695
:102AB000FFF7E0FA06F51D740025D6F8B432AB42F4
:102AC00008D92046103454F8043C1BB11B689847C1
:102AD0000135F2E770BD0000B0F5966F03D101211A
:102AE000014807F069B870479420002010B4D0E97D
:102AF000013401686210E40701EB020048BF8A5804
:102B00005DF8044B48BFD35818470000114B03F140
:102B1000780270B50360C0F8282103F1D802E833C9
:102B20000446C0F82C21C0F8403100F51D7600F5B0
:102B30002D75AE4204D0103D2846FEF7EBFDF8E7B8
:102B400004F5947005F0A4FD2046FFF767FB2046CE
:102B500070BD00BF9C550200A0F59470FFF7D6BF72
:102B6000A0F59670FFF7D2BF10B50446FFF7CEFF71
:102B700020464FF42E7106F0B5FE204610BDA0F59C
:102B80009670FFF7F1BFA0F59470FFF7EDBF00005E
:102B9000F7B5044615461F460E4607F0FDFBBDF887
:102BA00024300193BDF8203000932A463B4601466D
:102BB0002046FFF7C1FC002104F5947005F03EFDAE
:102BC0004FF47A73C4F84831174B236003F178024D
:102BD0000025C4F8282103F1D802E833C4F82C21D9
:102BE000C4F84451C4F840314FF48072294604F5CA
:102BF000A8700EF0D5FFC4F85052C4F88052C4F843
:102C00005452C4F89052C4F85852C4F8A052C4F8B0
:102C1000B052C4F8B452C4F8705216B12046FFF74F
:102C20004FFD204603B0F0BD9C55020038B5054667
:102C3000FFF710FA95F8D8304BB9D5F82041402C61
:102C400028BF40242846FFF70DFA204638BD00244F
:102C5000F8E7000070B5044686B0FFF7FBF92D4B8E
:102C6000C4F870322046FFF7FDF92B4B05932B4B30
:102C700003932046002302940493FFF7EBF9D4F862
:102C8000B452032D13D804EB05166B1C06F51D7604
:102C9000C4F8B4323046FEF73DFD04EB0515059B44
:102CA000C5F880321BB15B6802A9304698472046C0
:102CB000FFF7D8F902A8FEF72DFDBC2006F0FCFDB9
:102CC0000026174B0360054631460661403007F089
:102CD00019F805F1540006F0B3FF124B00934FF4BE
:102CE000807233462846182107F0A6F80E4B05934C
:102CF0000E4BC4F85C5202A92846CDE90236049670
:102D000007F0A6F802A8FEF705FD2046FEF772FEC2
:102D100006B070BDD92A010074550200F5190100F2
:102D2000E86B02008C55020080550200E129010089
:102D3000A0F5A070FFF78EBF90F8780070470000F4
:102D400037B50F4C0F4D204606F02CFF2A460E4992
:102D5000204606F0A6FB0D4C42F212030122CDE9FB
:102D60000032002211464FF4F8532046FFF710FFBF
:102D700007492A46204603B0BDE8304006F091BB23
:102D80009420002000020020BF9B0100DC1D0020D9
:102D90000D2B010008B50DF03DFC2DE9F04F027D33
:102DA000012A85B005460E4640F0908000214FF084
:102DB000FF3B04460B465F4694F804C048B2BCF1A2
:102DC000000F75D194F805C0BCF1000F70D1B7F1B8
:102DD000FF3F1BBF01335BB201233846934201DD45
:102DE0001A4683460131082904F102045ED1002409
:102DF00002EB0B03A1460293CB4502DC029B4B4541
:102E000059DC95F8058095F804A04FEA28170AF0D8
:102E10000F03FAB25FEA2A1A019208F00F0870D085
:102E20005FFA8AF1BAF1090FD4BF30315731304619
:102E3000039300F0CBF8039B0444092B94BF03F1E8
:102E4000300103F157013046039300F0BFF804440A
:102E5000BAF1000F02D1039B03B94FB1092F019FB3
:102E6000D4BF30375737F9B2304600F0AFF80444DA
:102E7000B8F1090F94BF08F1300108F1570130464D
:102E800000F0A4F8B9F1070F044404D03A21304609
:102E900000F09CF8044409F10109B9F1080F05F1AB
:102EA0000205A9D1204605B0BDE8F08F074683E7AB
:102EB0004FF0FF3096E7CB45EDD1BBF1000FE5D1E8
:102EC0003A21304600F082F80444DFE700F11007B1
:102ED00000F11309002417F8011B0A22304600F004
:102EE000BDF82E218046304600F070F8B9454044C8
:102EF0000444F0D10A22E97C304600F0AFF80444E3
:102F0000D0E7002B99D1A8E710B5054B0360044624
:102F100001751022002104300EF042FE204610BD43
:102F2000B856020070B5074D0560837400259DF802
:102F30001030057545608560C56001744274C374C6
:102F400070BD00BFB856020007B501210648FFF763
:102F5000DBFF002300931A4619460448FFF7E2FFFF
:102F600003B05DF804FB00BFA8200020C0200020B3
:102F70002DE9F04106460D4601EB02080C4644459A
:102F8000A4EB050707D0336814F8011B1B68304613
:102F900098470028F3D13846BDE8F08170B5044663
:102FA00008460D460FF0ECF92368024629462046F4
:102FB0005B68BDE87040184709B1FFF7EFBF0846EE
:102FC000704703688A685B680968184703681B686C
:102FD000184700000149FFF7E1BF00BF1B6902006D
:102FE00038B50546FFF7EDFF04462846FFF7F2FF28
:102FF000204438BD38B50546FFF7DEFF04462846B5
:10300000FFF7E8FF204438BD70B58AB00D460AA925
:10301000002301F8043D012A98BF0A22B5FBF2F40F
:1030200002FB1456F3B2092E94BF30333733DBB2B0
:10303000254601F8013D002CF0D1FFF7BDFF0AB095
:1030400070BD10B42AB903685DF8044B1B68C9B29F
:103050001847D2B25DF8044BFFF7D6BFFFF7F1BFB8
:1030600010B5044600F05EF9E060236820465B6915
:103070009847002808DA00F055F9E368C01AA368F9
:103080009842F2D34FF0FF3010BD000038B50D4626
:103090000749044600F064F82846FFF7E1FF0028DE
:1030A00004DBC1B2204600F0E9F8F5E7204638BD60
:1030B000305202000A6802604A68426000238A684F
:1030C0008260C1E900338B60704710B50446006828
:1030D00008B10EF021F9204610BD10B50446006875
:1030E00008B10EF019F900232360C4E9013310BDC3
:1030F00038B504460D46006801310EF0B1FD10B13F
:10310000C4E90005012038BD036810B5044623B1A9
:1031100043688B4201D3012010BD2046FFF7E8FF32
:103120000028F9D0A368002BF5D122681370F3E7CB
:1031300070B50E46114604461546FFF7E5FF20B967
:103140002046FFF7CAFF204670BD2A463146A560DB
:1031500020680EF027FC2268A3680021D154F2E712
:1031600038B500230446C0E9003383600D4639B109
:1031700008460FF005F9294602462046FFF7D8FF1A
:10318000204638BD38B5054608460C460FF0F8F81D
:10319000214602462846BDE83840FFF7C9BF8842AD
:1031A00038B505460C460CD000680EF0B5F823681B
:1031B0002B60A368AB6063686B600023C4E90133D4
:1031C000236038BD884210B50B46044604D0096818
:1031D00021B19A68FFF7ACFF204610BDFFF77DFFD5
:1031E000FAE710B500230446C0E900338360FFF717
:1031F000E9FF204610BD10B50446FFF7D0FF20467A
:1032000010BD10B5044619B1FFF7BCFF204610BD34
:10321000FFF763FFFAE72DE9F041054617468846B8
:1032200019B900263046BDE8F0819AB1846814448B
:103230002146FFF769FF06460028F2D0AB682868F0
:103240003A46184441460EF0ADFB2B68AC600022B4
:103250001A55E7E70126E5E738B5054608460C4666
:103260000FF08EF8214602462846BDE83840FFF7A9
:10327000D2BF09B1FFF7F0BF0846704707B502ABF0
:10328000012203F8011D1946FFF7C5FF03B05DF8E1
:1032900004FB826808B52AB959B10878B0FA80F001
:1032A000400908BD006809B90078F7E70EF0ECFEA8
:1032B000F4E70120F5E7000010B500F047F8FEF74D
:1032C000AFF9FEF7A3FEFEF797FE4FF4E131064893
:1032D000064CFFF7BFFCFDF7D1FBFDF745FB002CCB
:1032E000FBD0AFF30080F8E7DC1D002000000000F9
:1032F00010B50446FEF792F984423BBF2401024B0D
:103300004FF0FF30185710BD0402002010B50446DE
:1033100003F01EF8204610BD10B5044603F018F85F
:10332000204610BD07B50749684603F04EF84FF434
:103330007A720023DDE900010CF08CFC03B05DF82B
:1033400004FB00BFD820002006F00CBD08B50448DF
:1033500003F008F80348BDE8084003F003B800BFD5
:10336000F0200020D820002006F00CBD38B50A4C13
:103370000A4D204603F066F82046094C09492A46C2
:1033800006F08FF8204603F068F82A4620460649E2
:10339000BDE8384006F085B8F0200020000200208B
:1033A000D8200020193301000D33010008B590F931
:1033B00000305A1C04D121220E490F4805F08CFC24
:1033C000012259B11F2B86BF03F01F030B494FF099
:1033D000A04102FA03F3C1F8083508BD1F2B86BFD0
:1033E00003F01F0305494FF0A04102FA03F3C1F8AF
:1033F0000C35F2E74357020051570200000300501A
:103400002DE9F8431C4D4FEA001805EB080204466D
:10341000D0680F4610B1012106F064FA2046FFF78C
:1034200067FF8146012006F047FA002606704946EC
:10343000044604F001FD05EB0803012FDC6010D009
:1034400006D3022F12D0204602F01FFB012103E019
:10345000204602F01AFB31462046BDE8F84302F050
:1034600021BB2046BDE8F84302F002BB204602F033
:103470000CFB0321F0E700BF04020020F7B506466D
:103480000F46FEF7CBF886421BD20F4D05EB061513
:10349000EC687CB93046FFF72BFF0646012006F0AA
:1034A0000BFA00230446037001220097314604F012
:1034B000D9FCEC603946204603B0BDE8F040FFF788
:1034C00075BF03B0F0BD00BF040200201EF0040F62
:1034D0000CBFEFF30880EFF30980816911F8021C3B
:1034E000002932D101B590E80F10E047BDE8005047
:1034F0008CE80300244B93E80600914208BF704714
:103500001A6041B91EF0100F10D1204B186820F03E
:10351000010018600AE02CE9F00F1EF0100F08BF40
:103520002CED108A81F822E0C1F838C0906B92F837
:10353000221061F0FF0E1EF0100F08BFB0EC108AD1
:10354000B0E8F00F80F309887047114A1368994278
:10355000FAD801B552F821C00FC8E047BDE80050C5
:10356000CCF80000704701B501F030FBBDE8014028
:10357000EFF3098CBEE701B501F0ECFABDE80140BC
:10358000EFF3098CB6E700003804002034EF00E0C8
:103590003058020008B5014630B96FF0030000F062
:1035A000EEF96FF0030008BD132001F0C9FE30B939
:1035B0004FF0FF3000F0E3F94FF0FF30F3E7002069
:1035C000F1E7000008B5EFF305832BB9EFF31083A3
:1035D00013B9EFF3118333B16FF0050000F0CFF9A9
:1035E0006FF0050008BDDFF808C000DFFAE700BF94
:1035F00095350100EFF310832BB9EFF311800038FC
:1036000018BF0120704701207047000038B50546FB
:10361000A0B1846802686CB114F0030302D1C168E0
:103620000F2926D86FF00801002002F0D7F80024F7
:10363000204638BDC368002BF4D11546104BD3F893
:10364000900078B100F0FAFB0446A0B10123A3700A
:103650000023C4E90233F322094B2270094A656052
:103660005A66E5E7D3F880000122102100F06EFBD6
:10367000EAE71546EBE76FF0040102F0AFF8D7E791
:1036800024040020F1360100930710B502F0010474
:1036900022D400F10C0384B153E8000F00EA0102C8
:1036A0008A4203D0BFF32F8F002005E020EA0102F9
:1036B00043E8002404B1EFE710BD53E8000F0842CF
:1036C00003D1BFF32F8F002005E020EA010243E879
:1036D000002404B1F1E7EFE7C06801EA00031CB180
:1036E000994218BF0020E7E7002B08BF0020E3E75E
:1036F000F8B58468054604B9F8BD94F82320616ADA
:10370000A7682846FFF7C0FF064638B1204601F0FB
:10371000D6FB00223146204601F06AFD3C46EAE72E
:10372000F8B50D4617461E46044620B10378F32B24
:1037300001D1002907DA20466FF0030102F04EF8AC
:103740006FF00300F8BDFFF79FFF0028FAD186B1A4
:103750003146432001F0F4FD40B1074B5E6920463D
:10376000314601F091FB756286F823706FF001001D
:10377000E8E76FF00200E5E72404002070B5054695
:1037800010B10378F32B07D028466FF0030102F045
:1037900025F86FF0030070BD836863B1284601F01F
:1037A00085FB00226FF0020101F022FDA8680028CD
:1037B000F4D101F003FCAB78002613F001032E7066
:1037C0000FD0094BD3F89040294624B1204600F091
:1037D0004FFB3046DFE7D3F8800000F0EBFA2046DD
:1037E000D9E71846D7E700BF240400202DE9F041AF
:1037F000064620B10378F32B01D1002909DA6FF0D6
:103800000301304601F0EAFF6FF003052846BDE8EA
:10381000F08100F10C0353E8002F42EA010543E870
:10382000005000B1F7E7B4681CB9204601F0C6FBB0
:10383000ECE794F82320616AD4F808803046FFF75B
:1038400023FF074678B194F823309B0756BF656A7B
:10385000054620EA0505204601F031FB00223946E5
:10386000204601F0C5FC4446DEE7000008B50246EC
:10387000EFF3058333B100206FF0050101F0AEFFD7
:10388000002008BDFFF7B6FE0028F4D1DFF808C01D
:10389000104600DFF5E700BF0D36010038B50246DF
:1038A000EFF305834BB192B96FF00301104601F0BD
:1038B00095FF6FF00304204638BDFFF79BFE0028FC
:1038C000F1D1DFF830C0104600DF0446F3E713788B
:1038D000F32BE9D10029E7DB02F10C0353E8000FD9
:1038E00040EA010443E8004505B1F7E7104601F05E
:1038F000B5F9E0E7ED37010038B504461D46EFF3B2
:10390000058343B18CB920466FF0030101F066FFD7
:103910006FF0030038BDFFF76DFE0028F2D1DFF82D
:1039200028C020462B4600DFF4E72378F32BEAD1AA
:10393000002DE8D10029E6DB2046FFF7A5FE002890
:1039400008BF6FF00200E5E72137010008B5024625
:10395000EFF305833BB110466FF0050101F03EFF28
:103960006FF0050008BDFFF745FE0028F3D1DFF832
:1039700008C0104600DFF5E77D370100704770474B
:10398000EFF310832BB9EFF31180003818BF01203B
:103990007047012070470000064BDA6A3AB1D069DF
:1039A0005B6C1BB11B69984228BF184670474FF0EB
:1039B000FF30F5E72404002070B5464C237A012B34
:1039C00000F0858033B14FF0FF3001F0FBFE4FF087
:1039D000FF3070BD404DD5E90B61EB68E3652B8A84
:1039E000A4F854303046AB68236400F097F908B16E
:1039F000C4F88060D5E90561304600F08FF908B958
:103A0000D4F880606667D5E90761304600F086F932
:103A100008B9D4F88060A667D5E90961304600F09E
:103A20007DF908B9D4F88060E6676E6B3EB1D6E9DF
:103A300002233168304600F0E0F9C4F88460AE6BD0
:103A40003EB1D6E902233168304600F0D6F9C4F819
:103A50008860EE6B3EB1D6E902233168304600F053
:103A6000CCF9C4F88C602E6C3EB1D6E902233168E3
:103A7000304600F0C2F9C4F890606E6C3EB1D6E9F1
:103A800002233168304600F0B8F9C4F89460AE6C97
:103A90003EB1D6E902233168304600F0AEF9C4F8F1
:103AA0009860EE6C3EB1D6E902233168304600F0F2
:103AB000A4F9C4F89C602D6D3DB1D5E902232968B5
:103AC000284600F09AF9C4F8A05001232372002080
:103AD0007FE700BF24040020C057020070B5254DC9
:103AE0002B7A012B07D06FF0060001F06BFE4FF030
:103AF000FF34204670BD01F057FC10B94FF0FF3085
:103B0000F3E71D4A1D4E1E497068FF2382F82230DC
:103B100092F82230D26863F0FF03DB4314BFB3FA9C
:103B200083F32023C3F12003C2F30222934298BF00
:103B3000531CFE2202FA03F30F4ADBB2D37701F0E3
:103B40009DFE04460028D9D101F0ECFE286101F069
:103B5000D5FE0C4801F0AAF901F028FA3368DB071A
:103B60004CBF0223032383F31488BFF36F8F022318
:103B70002B72BEE72404002000ED00E0C0570200D5
:103B8000773501004004002010B50F4C237A022B3A
:103B900013D101F0BBFE01236372BFF34F8F0B4AB9
:103BA0005168C90042BF4FF000615160A372042305
:103BB0002372BDE81040FFF7EFBE6FF0070001F081
:103BC00001FE002010BD00BF2404002000ED00E035
:103BD00038B51E4C237A042B054635D1FFF7DCFEA1
:103BE000E26AA842034694BF00F1FF332B4612B1AC
:103BF000D069C01AD061626C12B11069C01A10612C
:103C0000E06803440544E360E368AB4213D1022358
:103C10000020237201F0D2F900236372BFF34F8FAB
:103C2000A27A22B1A3720A4B4FF080525A60BDE8CB
:103C3000384001F063BE0133E36001F07DF9236D8C
:103C4000002BE1D09847DFE738BD00BF24040020F7
:103C500000ED00E0704738B504460D46FFF78EFED4
:103C600029462046BDE8384001F06EBD08B5FFF793
:103C7000F1FFEFF3058333B16FF0050001F0A2FD12
:103C80006FF0050008BDFFF77BFE0028F4D1DFF8D8
:103C900008C000DFF6E700BFB939010008B5EFF34F
:103CA000058333B16FF0050001F08CFD6FF0050066
:103CB00008BDFFF765FE0028F4D1DFF808C000DF7B
:103CC000F6E700BFDD3A010008B5EFF305832BB13D
:103CD0006FF0050001F076FD002008BDFFF750FEF3
:103CE0000028F5D1DFF804C000DFF6E7893B0100CA
:103CF00008B50246EFF305832BB1BDE808406FF02D
:103D0000050001F05FBDFFF73BFE0028F5D1DFF8AD
:103D100008C0104600DF08BDD13B010010B598B1C6
:103D200040EA010313F007030ED117290AD90160F5
:103D3000083910220C18846042600B5081684A6078
:103D4000C3600123184610BD0023FBE7F0B578B32C
:103D500099B132F003032BD10F3121F0070700F1A5
:103D600008052B462D685C68E91A24F00304091B3A
:103D70008F4204D929680029F3D10846F0BD46686E
:103D800004683E4446602044083841688E4288BF3B
:103D9000466058683A4318B95A6003F10801ECE7E5
:103DA00020F0030019181D504A6019600831E4E73B
:103DB0000021E2E730B590B1D9B1A1F1080500F1D9
:103DC00008040022AC420BD151F8043C23F0030458
:103DD00043681B1B436042B941F8042C012030BDED
:103DE000236822463BB11C46ECE751F8083C1360BF
:103DF000F4E70846F3E71846F1E730B5C0B189B1FA
:103E0000C2B1CBB10024C0E9014202FB01F41D198B
:103E10000160C360436105611846013904D1A21AEB
:103E200099500121084630BD851805602846F4E701
:103E30000146F7E71146F5E71946F3E710B50346E3
:103E4000A8B100F1140252E8000F10B9BFF32F8F90
:103E500004E0016842E8001404B1F4E738B1043327
:103E600053E8002F511C43E8001404B1F8E710BDDB
:103E700030B5F0B1C3688B421BD803698B4218D9A7
:103E800000F114031A680A60BFF35F8F53E8002F34
:103E90000C689442F6D143E8001505B1F2E704300E
:103EA00050E8003F5A1E40E8002101B1F8E7002029
:103EB00030BD6FF00300FBE7EFF310832BB9EFF396
:103EC0001180003818BF0120704701207047036B34
:103ED00030B5E3B1CD780024DA78AA420FD31A4680
:103EE000C1E901248AB19160A4B16160283050E831
:103EF000003F5A1C40E8002101B1F8E730BD5A6884
:103F00001C46002AECD01346E6E7C162ECE7C1E9A3
:103F10000133C1620163E9E7D1E9013223B19A605B
:103F20008A681AB153607047C262F9E70363704749
:103F3000F8B5877804468FB3C56801460027284640
:103F400005F10C06FFF7E8FF27703046FFF790FFFA
:103F5000AB68002B48D03046FFF770FF04460028BE
:103F600042D0284600F0A2FF3A460646394601F004
:103F70003FF9304601F010F86A6A8168064604F19C
:103F80000C000DF00FFDF9232370A770F368E370A8
:103F900021462846BDE8F840FFF799BF8568AB6821
:103FA000002BF5D05B78832BF2D1284600F07EFF02
:103FB0003A460646394601F01BF9304600F0ECFF60
:103FC00006466A6A806804F10C010DF0EBFCF368A8
:103FD0000BB1E2781A7000232370214605F10C0022
:103FE000BDE8F840FFF744BFF8BD00002DE9F041FF
:103FF0000C4617469846054618B10378FA2B00D1AF
:1040000041B928466FF0030101F0FEFB6FF0030099
:10401000BDE8F0818368C3B15B78832B15D100F0D4
:1040200045FF01220646002101F0E2F8304600F08B
:10403000B3FF06466A6A806821460DF0B3FCF0685B
:104040000028E5D007700020E2E705F10C00FFF73B
:10405000F5FE064670B121466A6A0C300DF0A2FCEE
:104060000024F9233370B470F77031462846FFF707
:104070002EFFE8E7B8F1000F10D04146932001F081
:104080005FF940B1074B2846596900F0FDFEEFF398
:104090000983C3E902476FF00100B9E76FF002003E
:1040A000B6E700BF240400202DE9F84F88460746F4
:1040B00038B131B1B0FA80F3B1FA81F10B441F2B62
:1040C00006DC6FF00301002001F09EFB002470E08D
:1040D00008F1030626F003060C3606FB00F9F2B1E0
:1040E00094683CB1A30702D1D368332B05D86FF095
:1040F0000801E8E7D368002BF9D1D2E90453D2F8DC
:1041000000A03DB115F0030B01D1994554D96FF0D2
:104110000901D8E7002BFAD11CB19B460CE092466E
:104120001546274BD3F8A000D8B1FFF787FE044609
:10413000A0B14FF0010B35BB214B0022D86F49468F
:10414000FFF704FE0546C0B9BBF1000F06D01C4BBB
:10415000D3F8A000214658B1FFF78AFE6FF00401A2
:10416000B1E7D3F8800001223421FFF7EFFDDEE74D
:10417000D3F88000FFF71EFEF0E74A4600210DF05D
:104180000FFD4BF0020BFA2323700023C4E90983CF
:10419000C4E90B33A36032462B4684F802B0C4F85E
:1041A00004A0394604F10C00FFF727FE044B054A32
:1041B0001A672046BDE8F88F002CE4D1B1E700BFB4
:1041C00024040020313F010010B500F1280353E81A
:1041D000002F12B9BFF32F8F04E0511E43E80014E3
:1041E00004B1F4E70AB9002010BDC06A0123002819
:1041F000F9D0821CD2E84F1FC2E8443F04B1F9E76E
:1042000011F0FF0FF0D08068F1E700002DE9F041D8
:104210000F4615469846044618B10378FA2B00D18C
:1042200041B920466FF0030101F0EEFA6FF0030090
:10423000BDE8F081FFF7C8FF064600283AD00146E6
:104240002046FFF769FE626A06F10C0138460DF060
:10425000A9FB0DB1F3782B70002504F10C07357024
:1042600031463846FFF704FEA3680BB90020DFE7AC
:104270003846FFF7E3FD06460028F7D0204600F059
:1042800015FE29460746012200F0B2FF384600F02D
:1042900083FE626A8168074606F10C000DF082FB1E
:1042A000F9233370B570FB68F37031462046FFF791
:1042B0000EFEDBE7B8F1000F10D04146832001F07D
:1042C0003FF840B1074B2046596900F0DDFDEFF3A0
:1042D0000983C3E902756FF00100A9E76FF00200DE
:1042E000A6E700BF2404002008B5064B08219A6EFB
:1042F000D86EFFF7D9FE044BD864B0FA80F04009BD
:10430000404208BDC0570200240400202DE9F041BE
:1043100006460F4690461C46EFF305834BB196B90F
:1043200030466FF0030101F06FFA6FF00300BDE853
:10433000F081FFF7C1FD0028F1D1DFF84CC0304615
:10434000234600DFF3E73378FA2BE9D1002FE7D0DB
:10435000002CE5D106F10C00FFF770FD054680B199
:10436000726A39460C300DF01DFBF9232846C5E969
:1043700001762B70AC7085F8038000F06FFC20464E
:10438000D5E76FF00200D2E7ED3F0100F8B5044633
:104390000F4616461D46EFF3058343B18CB9204600
:1043A0006FF0030101F030FA6FF00300F8BDFFF782
:1043B00083FD0028F2D1DFF848C020462B4600DFFD
:1043C000F4E72378FA2BEAD1002FE8D0002DE6D1CC
:1043D0002046FFF7F9FE054670B100F10C01626A54
:1043E00038460DF0DFFA0EB1EB7833702846EC60FA
:1043F00000F034FC0020D9E76FF00200D6E700BFE0
:104400000D420100EFF310832BB9EFF31180003858
:1044100018BF0120704701207047000070B5A8B395
:104420008468D0E900566CB114F0030302D1C2686D
:104430001B2A1AD86FF00801002001F0D5F90024DA
:10444000204670BDC368002BF4D1124BD3F8940002
:1044500030B9D3F8800001221C21FFF777FC01E07E
:10446000FFF7ECFC044660B10123F522A3700023A2
:10447000C4E90233C4E904332270E6706560237630
:10448000DEE76FF0040101F0AFF9D9E70546064613
:10449000DBE700BF24040020284B70B55D690446AB
:1044A0000E4635B96FF0070101F09EF94FF0FF306D
:1044B00070BD10B10378F52B07D020466FF00301D3
:1044C00001F092F96FF00300F2E7037E53B9C0E9FF
:1044D0000353EB6A436103B11861EC620123237655
:1044E0000020E5E7C278D1070DD5C168A9420AD1FD
:1044F000FF2B06D16FF00F0101F076F96FF002008B
:10450000D6E70133EBE7002EF8D093070AD5E06831
:1045100095F9203090F920209A4203DA80F8203073
:1045200000F0D6FC3146532000F00AFF18B12946AE
:10453000204600F0A9FC6FF00100B9E72404002038
:104540002E4B5A6970B5044632B96FF0070101F07D
:104550004BF94FF0FF3070BD10B10378F52B07D049
:1045600020466FF0030101F03FF96FF00300F2E71E
:10457000037E33B96FF00E0101F036F96FF00200DF
:10458000E9E7C168914202D06FF00D01F4E7013B09
:10459000DBB2037613BB43690BB101691961216971
:1045A000F1B14B6192F92130D56ADDB982F8203042
:1045B000A36883B1204600F079FC06462A462946C6
:1045C00000F016FEF36A6361C4E9036503B11C6180
:1045D0000123F4622376002000F0F0FC0020BAE70B
:1045E000D362DFE7E978890706D5A96821B191F997
:1045F00020108B42B8BF0B466D69D6E7240400201B
:1046000070B5044610B10378F52B07D020466FF043
:10461000030101F0E9F86FF0030070BD037EBBB148
:104620006369C0680BB122691A61226902B35361E0
:1046300090F92120C36AEBB990F92030934203D05E
:1046400080F8202000F044FCA068F8B900F0B6FC27
:10465000A078002610F001002670DED0134BD3F8AE
:1046600094502146DDB12846FFF702FC3046D4E7DE
:10467000C362DDE7D978890706D5996821B191F938
:1046800020108A42B8BF0A465B69D4E7204600F092
:104690000DFC00226FF0020100F0AAFDD4E7D3F870
:1046A0008000FFF787FB2846B7E700BF24040020FF
:1046B0002DE9F0410446002601270CB9BDE8F08140
:1046C000E378D4F814801B0712D5A36826767BB153
:1046D000204600F0EBFB00220546114600F088FD65
:1046E000EB6A6361C4E9035603B11C61EC6227768F
:1046F0004446E2E710B4C3789B071DD5C06890F923
:104700002120C36ADC78A40709D59C688C4208BFC5
:104710008C6824B194F92040A242B8BF22465B695C
:10472000002BEFD190F92030934205D080F8202063
:104730005DF8044B00F0CCBB5DF8044B7047000003
:1047400008B50246EFF3058333B100206FF0050191
:1047500001F04AF8002008BDFFF754FE0028F4D10C
:10476000DFF808C0104600DFF5E700BF1D44010078
:1047700008B50246EFF305833BB110466FF0050123
:1047800001F032F86FF0050008BDFFF73BFE00288E
:10479000F3D1DFF808C0104600DFF5E799440100C7
:1047A00008B50246EFF305833BB110466FF00501F3
:1047B00001F01AF86FF0050008BDFFF723FE00288E
:1047C000F3D1DFF808C0104600DFF5E741450100EE
:1047D00008B50246EFF305833BB110466FF00501C3
:1047E00001F002F86FF0050008BDFFF70BFE00288E
:1047F000F3D1DFF808C0104600DFF5E701460100FD
:10480000EFF310832BB9EFF31180003818BF0120AC
:104810007047012070470C30D0E85F3F13B9BFF3F9
:104820002F8F04E05A1EC0E8512F01B1F4E798B26F
:10483000003818BF0120704730B500F10C02C18963
:10484000D2E85F3F994202D8BFF32F8F04E05C1C8F
:10485000C2E8554F05B1F3E7C0899BB2984294BFB7
:104860000020012030BD0000F8B515464FF6FE735C
:10487000421E9A4206460F4601D8884207D26FF080
:104880000301002000F0B6FF00242046F8BD7DB1F2
:10489000AC682A6844B114F0030302D1E9680F2917
:1048A00022D86FF00801ECE7EB68002BF9D1154630
:1048B000114BD3F8980080B1FFF7C0FA0446A8B1B5
:1048C0000123A3700023F622A3600B4B22700B4A36
:1048D0006560A781E6819A66D7E7D3F88000012258
:1048E0001021FFF733FAE9E71546EAE76FF0040114
:1048F00000F080FFC9E700BF240400200149010047
:10490000836810B504465BB1FFF785FF40B12046D0
:1049100000F0CCFA0022BDE81040114600F068BC5F
:1049200010BD38B5054610B10378F62B07D02846E0
:104930006FF0030100F05EFF6FF0030038BD846884
:104940003CB100F0B3FA0122002100F051FC00203C
:10495000F4E7FFF771FF38B928466FF0100100F057
:1049600049FF6FF00200E9E72046E7E738B50D465A
:10497000044610B10378F62B07D020466FF00301F0
:1049800000F038FF6FF0030038BDFFF744FF68B94F
:1049900075B12946632000F0D3FC20B1064B2046B8
:1049A000596900F071FA6FF00100EDE70020EBE7C4
:1049B0006FF00200E8E700BF2404002070B5054650
:1049C00010B10378F62B07D028466FF0030100F0F2
:1049D00011FF6FF0030070BD836863B1284600F0DB
:1049E00065FA00226FF0020100F002FCA8680028BE
:1049F000F4D100F0E3FAAB78002613F001032E7037
:104A00000FD0094BD3F89840294624B12046FFF730
:104A10002FFA3046DFE7D3F88000FFF7CBF92046C6
:104A2000D9E71846D7E700BF2404002010B5044694
:104A3000EFF3058333B100206FF0050100F0DAFEDB
:104A4000002010BDFFF7DCFE0028F4D1DFF808C01D
:104A5000204600DFF5E700BF6948010008B50246BF
:104A6000EFF3058343B182B910466FF0030100F004
:104A7000C1FE6FF0030008BDFFF7C2FE0028F2D1AF
:104A8000DFF824C0104600DFF5E71378F62BEBD1F2
:104A90000029E9D11046FFF7BEFE002814BF002010
:104AA0006FF00200E7E700BF6D49010010B5044652
:104AB000EFF3058343B184B920466FF0030100F0A2
:104AC00099FE6FF0030010BDFFF79AFE0028F2D1A7
:104AD000DFF830C0204600DFF5E72378F62BEBD176
:104AE0002046FFF7A9FE20B1204600F0B7F80020CD
:104AF000E9E720466FF0100100F07CFE6FF0020045
:104B0000E1E700BF2349010008B50246EFF3058342
:104B10003BB110466FF0050100F06CFE6FF0050030
:104B200008BDFFF76DFE0028F3D1DFF808C010467E
:104B300000DFF5E7BD49010010B5D0E85F3F5A1C22
:104B4000914200D80022C0E8542F04B1F5E798B292
:104B500010BD000038B51C4C00F0DEFEE3680133E8
:104B6000E36000F0E9F9002000F028FA236D03B1BA
:104B70009847226C32B3A369E16B994203D0D9699B
:104B8000E36301B9DA61DA69C2B9237A022B19D178
:104B9000656ABDB1E36B95F9202093F920309A4204
:104BA00010D1284600F08BF9E06B00F0A3F92846FD
:104BB00000F0FCF9236CE563EB6103E0013ADA6194
:104BC000002AE2D038BD00BF2404002070B5224C7A
:104BD00004F1560504F15A06B4F85410D5E85F3FC5
:104BE00013B9BFF32F8F04E05A1EC5E8502F00B150
:104BF000F4E79BB25BB33046FFF79EFFE36D53F8DB
:104C0000200020B30378F13B082BE5D801A252F82D
:104C100023F000BF394C0100D94B01003F4C01008B
:104C2000D94B0100D94B0100434C0100474C010016
:104C3000D94B01004B4C0100236E9847CCE7636EC3
:104C4000FBE7A36EF9E7E36EF7E7236FF5E7BDE84F
:104C50007040002000F0B2B92404002070B5164C5A
:104C60000546B4F8541004F15602D2E85F3F994269
:104C700002D8BFF32F8F04E0581CC2E8560F06B1CC
:104C8000F3E79BB2994205D829460220BDE870405F
:104C9000FEF7E1BF04F15800FFF74EFFE36D43F864
:104CA0002050637A23B9054B4FF080525A6070BD93
:104CB0000123A372FBE700BF2404002000ED00E005
:104CC000EFF310832BB9EFF31180003818BF0120E8
:104CD0007047012070470378F12B00D07047C068FF
:104CE000F9E7000010B5C469621CD0E904310CD1A9
:104CF00003B1596142691AB113610023436101E0B4
:104D0000074A13630023C36110BD1BB1DA695961FF
:104D10002244DA614269002AEED1014AD362F1E706
:104D20002404002010B50A4A90F920100123437092
:104D3000536A1C321BB193F920408C4205DCC0E958
:104D40000232906003B1D86010BD1A469B68F1E74B
:104D500024040020014B5869704700BF2404002040
:104D600008B500F057FDDFF810C000DF4FF0FF314D
:104D7000002000F02DFDFEE759520100930710B509
:104D800002F0010422D400F1280384B153E8000F9B
:104D900000EA01028A4203D0BFF32F8F002005E012
:104DA00020EA010243E8002404B1EFE710BD53E814
:104DB000000F084203D1BFF32F8F002005E020EA47
:104DC000010243E8002404B1F1E7EFE7806A01EA59
:104DD00000031CB1994218BF0020E7E7002B08BF71
:104DE0000020E3E710B5084A136B00213BB94FF0F0
:104DF000FF34C0E90431C46121B1086110BD194616
:104E00001B69F3E71063F9E72404002010B50023C1
:104E1000038083789A07044608D513F0100F016BBE
:104E20000E4B0FD0D3F88400FFF722F8A378DB07EE
:104E300012D50A4BD3F88800214638B1BDE810409E
:104E4000FFF716B8586FFEF7B5FFEFE7BDE8104063
:104E5000D3F88000FEF7AEBF10BD00BF24040020D1
:104E6000C278D207034601D4FFF7D0BF04224270B4
:104E70000022C260034A516B816001B1C860536374
:104E8000704700BF2404002010B591F920208368EA
:104E90001BB193F92040944205DAC1E902308160E8
:104EA00003B1D96010BD18469B68F1E783689A6822
:104EB000826002B1D0600022DA6018467047C26892
:104EC0002AB18368936003B1DA600023C36070473E
:104ED00010B50146044664B12378F12B07D008468B
:104EE000FFF7EDFF2046BDE81040FFF7CDBFE468B7
:104EF000F1E710BD0123014643700148FFF7C4BF2D
:104F00004004002070B50B4D2E7A022E10D16C6A31
:104F100074B1696994F9202091F920309A4207D13F
:104F20002046FFF7CCFF0846FFF7E4FF6670AC6150
:104F3000002070BD2404002038B5164DEC6A44B33F
:104F4000E369013BE36123BB6378732B06D009D887
:104F5000532B0BD003F0DF03432B0DD12046FFF77B
:104F6000BAFE09E003F0EF03832BF6E72046FFF7D4
:104F7000B2FE2146FFF7BEFB2046FFF7A0FFFFF77A
:104F8000B9FF246924B1E369002BDDD000236361FC
:104F9000EC6238BD2404002090F82230826B13F0BC
:104FA000100F0CBF60202020104470470223437074
:104FB000014B9861704700BF2404002070B5124D6A
:104FC00004462E7A696990B9022E0FD16C6A6CB1D1
:104FD00094F9202091F920309A4207DD2046FFF70E
:104FE0006EFF0846FFF79EFE6670AC6170BD022E34
:104FF00005D190F9202091F920309A42F1DC204629
:10500000BDE87040FFF776BF240400202DE9F04F83
:1050100085B08146029128B96FF0030100F0D8FBFA
:105020000024BCE0002A45D0966846B1B40702D1FE
:10503000D368432B06D86FF008010020EEE7D36851
:10504000002BF8D1D2E9044597693CB1600702D141
:10505000002D40F0B2806FF00A01EEE72FB17B1E09
:10506000372B03D96FF00B01E7E71827002D40F02D
:10507000A880D2E900A301934EBB574BD3F8880018
:10508000F0B1FEF7DBFE064600283AD04FF00108EB
:10509000002C44D1DFF840B1E5B9504ADBF8840078
:1050A000556DB8B1FEF7CAFE0246E0B148F01008EF
:1050B000344623E092461446182715460192DCE751
:1050C000D3F8800001224421FEF740FEDBE74FF0D9
:1050D0000008DDE72246DBF874002946FEF736FEBD
:1050E00002460028E4D1B8F1000F16D0DBF8882082
:1050F00052B110463146FEF7BBFE002248F00208CE
:105100007CB96FF0040198E7DBF880000392314628
:10511000FEF750FE039A1446F0E74246EEE72246B9
:10512000344640F2F1132380019BE3700023C4E96D
:105130000233C4E90433C4E90633C4E90933C4E9DA
:105140000B32A5F140031344C4E90E397FB2244B5E
:1051500084F80280FD21C4F804A084F8207084F84B
:1051600021706184656313601C4B1B685B071AD454
:10517000A36B00201A4603F1340143F8040B994253
:10518000FBD1184BC2E90D394FF08073D363029BFA
:105190001362114B144A1A662046FFF70FFF204690
:1051A00005B0BDE8F08FAD08113D4FF0CC33002DB8
:1051B000DED042F8043F013DF9E7002F7FF44FAF06
:1051C000182769077FF447AF084BA5F148019942BA
:1051D0007FF64FAF3FE700BF24040020C057020016
:1051E000A52E5AE2614D010015520100B7FFFF7F65
:1051F00038B504461546FFF7CFFE01602046FFF79D
:1052000071FD1DB1BDE83840FFF7D8BEBDE838409C
:10521000FFF770BE10B54378332B04460CD1416ABA
:1052200090F82320FFF7AAFD014628B1204600226E
:10523000BDE81040FFF7DCBF10BD10B50446806923
:1052400018B100221146FFF7D3FF6378232B02BF6A
:10525000A36800229A6110BD70B50F4C267A022E09
:1052600018D1636AB3B16569E86AFFF721FA284685
:10527000FFF7E3FF04F11C00FFF718FE4670A06182
:10528000EFF30983AB63002363612846BDE87040F8
:10529000FFF7E6BD70BD00BF2404002010B5044632
:1052A00010B10378F12B07D020466FF0030100F016
:1052B0008FFA6FF0030010BD437803F00F03022B49
:1052C0001ED0032B2BD0012B2ED1FFF7F8FDE06A67
:1052D000FFF7EEF92046FFF7B0FF6178022926D1EB
:1052E0001548FFF7E3FD154B41709861EFF3098214
:1052F000A26300225A612046FFF7B2FD0020DAE7E0
:105300000E4B1A7A022A02D15B6A002BDFD16FF0B2
:105310000201204600F05CFA6FF00200CBE7FFF7D5
:10532000CEFDFFF7DFFCD2E76FF00201F2E70020CD
:10533000FFF744FEDFE700BF400400202404002004
:1053400038B5174C237A022B024627D1606A60B128
:1053500060694B1C427009D1FFF744FD1148FFF70B
:10536000A5FD02234370A061012038BDE36A00223D
:1053700013B1DD69A9420BD2C0E90432C1615AB14F
:105380001061002BEAD0DA695861511AD961E5E75A
:105390001A46491B1B69EBE7E062F2E70020E4E7ED
:1053A000240400204004002038B50D4C0D48A26DA7
:1053B0000D4D0021FFF72AFE636EA8625BB198478E
:1053C00058B9E26DE96C206EFFF720FEA864003842
:1053D00018BF012038BD0120FCE70020FAE700BF1C
:1053E000C0570200415701002404002010B50446B4
:1053F000EFF3058333B100206FF0050100F0E8F909
:10540000002010BDFFF75CFC0028F4D1DFF808C0D5
:10541000204600DFF5E700BF0D50010008B5EFF3AF
:10542000058313B1054B586908BDFFF749FC0028F7
:10543000F8D1DFF80CC000DFF6E700BF240400203D
:10544000554D010008B5EFF305833BB100206FF027
:10545000050100F0BDF96FF0050008BDFFF730FC55
:105460000028F3D1DFF804C000DFF6E7054F0100A4
:1054700010B5044600F0DAF9EFF305833BB120469E
:105480006FF0050100F0A4F96FF0050010BDFFF703
:1054900017FC0028F3D1DFF808C0204600DFF5E74D
:1054A0009D5201000C4A536C30B5002413B11D69A4
:1054B0008D420AD9C0E9024301611BB11D699860A0
:1054C000691A19612CB1E06030BD1C46491BDB68CC
:1054D000ECE75064F8E700BF240400202DE9F04118
:1054E000184D6C6C54B323696E69013B236101272D
:1054F000236913BBE3680BB1A2689A606B64002355
:10550000E86C1A4604F11801FEF700FF58B1D5E91E
:105510000583214603206B61FEF79DFB6B6913B980
:10552000B04508BF0026E378012B09D16169204608
:10553000FFF7B8FF6C6C002CDAD16E61BDE8F0812A
:105540006770F7E72404002008B5FEF7CDFE18B910
:10555000034B044A1A6508BD4FF0FF30FBE700BF5C
:1055600024040020DD54010007B504464FF0FF334A
:10557000002269462046FEF709FF0028F6D1DDE942
:1055800000309847F2E7000008B5094B094A1A6055
:10559000094B9B1A094A1360094B0A4A1A600A4BC5
:1055A0009B1A0A4A136000F051F800F069F800BF36
:1055B000BC27002000FC032000000420B8270020A6
:1055C000C42A0020A8B6002000FC0320C02A002026
:1055D0000E4838B50E4B03600B250E4B45601C245E
:1055E000C4608360FFF7ACF80B4B18600B480C4BA2
:1055F000C460C0E900350B4B8360FFF7A1F80A4B8C
:105600001860BDE838400BF0DBBD00BF88270020E4
:10561000945802009C27002098270020582700203B
:10562000A15802006C27002068270020FDF744BE27
:10563000024B4FF0FF311868FFF79AB89827002007
:10564000014B1868FFF7ACB89827002008B505F0A3
:1056500071FEBDE8084000F011B87047704708B50A
:1056600000F042F8FFF7F9FFFFF7B2FFFFF7F6FF90
:1056700003F04CFDBDE80840FFF7D8BFFEF7F6BACF
:10568000114C124B23614FF4004363614423E360E8
:105690000F4BA360182307B5A3610E480E4B236080
:1056A00022460021FFF7A2FE034628B90B490090CD
:1056B00022460B4803F032FDFEF7F0FA00230949B9
:1056C00000931A46F5E700BFB4310020E031002016
:1056D000C02700205F560100BB580200C0580200DE
:1056E0001D010180DC5802001FB5064B0FCB6C4634
:1056F00084E80F002046FFF723F8034B186004B03E
:1057000010BD00BFF4580200D831002073B5064622
:105710000C46154603F0FCFC58B906342ABF064B6C
:10572000064953F82410002300933246284603F01C
:10573000F5FC02B070BD00BFB85A02000C5A02005E
:1057400008B500F0F3F8000007B50023421E0093EF
:105750000023042A19D8DFE802F003080C10140013
:105760000C490D48012203F0D9FC0C490C480222D7
:10577000F9E70C490C480322F5E70C490C480422D0
:10578000F1E70C490C480522EDE702460B490C48AD
:10579000E9E700BF045902002501028025590200F3
:1057A000260102804A590200270102807F59020027
:1057B00028010280BA5902002A010280FA59020027
:1057C00000010280014A0146FFF7A0BF31010180BC
:1057D000014AFFF79BBF00BF32010180014AFFF77A
:1057E00095BF00BF37010180014AFFF78FBF00BF9F
:1057F0003301018011F1110F02D0024AFFF786BF79
:10580000704700BF34010180014AFFF77FBF00BF2E
:105810003801018010B5FFF701FE034B1B6813B17F
:10582000BDE81040184710BD04280020024B1B683B
:1058300003B11847704700BF04280020024B987A34
:10584000003818BF012070472404002008B5FEF777
:105850003BFA0749002203F0F3FCC31C04D90549B5
:1058600005488B2203F038FABDE80840FEF740BA3D
:105870003D580100F35A0200055B0200B0F57A7F43
:1058800038B50D4604D018491848322203F024FADE
:1058900002F032FF041E13DB04F1604303F56143A1
:1058A000E02283F800232946204604F0EBFE204640
:1058B00004F0F0FE85420AD00B490D483F22E5E78F
:1058C0000C4B04F00F021344E0221A76EBE7002C95
:1058D00008DB094B6209012004F01F0400FA04F4FC
:1058E00043F82240002038BDF35A0200325B020028
:1058F0003F5B0200FCEC00E000E100E008B503F0D3
:1059000027FCBDE8084002F0F6BF0000014B186814
:1059100003F026B8F0290020014B186802F0E2BF1E
:10592000F029002008B502F0E7FE08BD08B5024CDA
:1059300023689847FCE700BFC804002003680BB148
:10594000084618477047CB68C3600BB15B681847BF
:1059500070470000044B0022C3E901221A611A605B
:10596000024ADA60704700BF082800203D59010054
:105970000346002210B503F8012B00F1110403F8CF
:10598000012B9C42FBD1418210BD000008B542F6BC
:1059900002110248FFF7ECFF08BD00BF1C280020E1
:1059A000C36810B52BB9054905484FF4FD7203F0E3
:1059B00093F9BDE810401B68184700BF905B0200D8
:1059C0009B5B0200034B1A78034B53F8223003B160
:1059D00018477047CC04002030280020074B1B7864
:1059E0005BB1074B0122C3F80823064B5A78FF2A04
:1059F00000D1FEE7044A12885A707047E5B10020D2
:105A000000F0004040B3002010B20020F8B5054679
:105A1000064655F8044B8CB90D4F386818B14FF055
:105A2000FF31FEF7A5FE346824B9284604F008F9D2
:105A30002C463560386808B1FEF7B2FEAC4204D09F
:105A4000044905488B2203F047F92046F8BD00BF02
:105A5000D8310020CB5B0200DA5B02000368012230
:105A60001B6900211847036800221B69114618476B
:105A700007B5019003F0E0F90198012105F090F9D4
:105A800003B05DF804EB03F0EDB907B5019003F046
:105A9000D3F90198002105F083F903B05DF804EB18
:105AA00003F0E0B907B5CDE9001003F0C5F9DDE971
:105AB000001005F053F903B05DF804EB03F0D2B920
:105AC000416830B4034671B1D0E9032000F001040D
:105AD00002B944B1451001EB60000CB149598A5834
