:020000040000FA
:100000000C9435000C945D000C945D000C945D0024
:100010000C945D000C945D000C945D000C945D00EC
:100020000C945D000C945D000C945D000C945D00DC
:100030000C945D000C945D000C945D000C945D00CC
:100040000C94D2010C945D000C9442020C941C029E
:100050000C945D000C945D000C945D000C945D00AC
:100060000C945D000C945D00740211241FBECFEF50
:10007000D8E0DEBFCDBF11E0A0E0B1E0E8E0FBE0FA
:1000800002C005900D92A632B107D9F721E0A6E291
:10009000B1E001C01D92A23DB207E1F710E0C5E357
:1000A000D0E004C02197FE010E947C05C433D10733
:1000B000C9F70E94C0020C9482050C9400008E3097
:1000C00008F08E508770806480937C0080917A0065
:1000D000806480937A0080917A0086FDFCCF8091C5
:1000E0007800909179000895AF92BF92CF92DF92FD
:1000F000EF92FF920F931F93CF93DF936C017B01DD
:100100008B01040F151FEB015E01AE18BF08C0176D
:10011000D10759F06991D601ED91FC910190F081E0
:10012000E02DC6010995892B79F7C501DF91CF91A3
:100130001F910F91FF90EF90DF90CF90BF90AF9005
:100140000895FC01538D448D252F30E0842F90E0DD
:10015000821B930B541710F0CF96089501970895C2
:10016000FC01918D828D981761F0A28DAE0FBF2F8B
:10017000B11D5D968C91928D9F5F9F73928F90E0E1
:1001800008958FEF9FEF0895FC01918D828D981750
:1001900031F0828DE80FF11D858D90E008958FEF8D
:1001A0009FEF0895FC01918D228D892F90E0805C56
:1001B0009F4F821B91098F739927089581E391E0E6
:1001C0000E94D20021E0892B09F420E0822F0895BB
:1001D00080E090E0892B29F00E94DE0081110C94D0
:1001E00000000895FC01A48DA80FB92FB11DA35ADA
:1001F000BF4F2C91848D90E001968F739927848F47
:10020000A689B7892C93A089B1898C918370806469
:100210008C93938D848D981306C00288F389E02D0A
:1002200080818F7D80830895EF92FF920F931F93BB
:10023000CF93DF93EC0181E0888F9B8D8C8D981399
:100240001AC0E889F989808185FF15C09FB7F894A5
:10025000EE89FF896083E889F989808183708064F1
:1002600080839FBF81E090E0DF91CF911F910F913C
:10027000FF90EF900895F62E0B8D10E00F5F1F4F4B
:100280000F731127E02E8C8D8E110CC00FB607FC5A
:10029000FACFE889F989808185FFF5CFCE010E94E8
:1002A000F200F1CFEB8DEC0FFD2FF11DE35AFF4F64
:1002B000F0829FB7F8940B8FEA89FB898081806276
:1002C000CFCFCF93DF93EC01888D8823B9F0AA8933
:1002D000BB89E889F9898C9185FD03C0808186FD01
:1002E0000DC00FB607FCF7CF8C9185FFF2CF808150
:1002F00085FFEDCFCE010E94F200E9CFDF91CF91D3
:100300000895FC0101900020E9F73197AF01481BE7
:10031000590BBC0181E391E00C9474008F929F9281
:10032000AF92BF920F931F93CF93DF93CDB7DEB7FA
:10033000A1970FB6F894DEBF0FBECDBF19A2423011
:1003400008F44AE08E010F5D1F4F842E912CB12CD2
:10035000A12CA50194010E94BE03E62FB901CA0198
:10036000EA30F4F4E05DD801EE938D01232B242BC9
:10037000252B79F790E080E0109719F0CD010E94CD
:100380008101A1960FB6F894DEBF0FBECDBFDF91FD
:10039000CF911F910F91BF90AF909F908F90089534
:1003A000E95CE1CF1F920F920FB60F9211242F93A9
:1003B0003F938F939F93AF93BF9380912D01909123
:1003C0002E01A0912F01B091300130912C0123E03A
:1003D000230F2D3758F50196A11DB11D20932C0137
:1003E00080932D0190932E01A0932F01B0933001A3
:1003F0008091280190912901A0912A01B0912B01AF
:100400000196A11DB11D8093280190932901A0930D
:100410002A01B0932B01BF91AF919F918F913F9192
:100420002F910F900FBE0F901F90189526E8230F65
:100430000296A11DB11DD2CF1F920F920FB60F923F
:1004400011242F933F934F935F936F937F938F93D9
:100450009F93AF93BF93EF93FF9381E391E00E944B
:10046000F200FF91EF91BF91AF919F918F917F919A
:100470006F915F914F913F912F910F900FBE0F9011
:100480001F9018951F920F920FB60F9211242F9361
:100490008F939F93EF93FF93E0914101F09142017D
:1004A0008081E0914701F091480182FD1BC090815D
:1004B00080914A018F5F8F7320914B01821741F029
:1004C000E0914A01F0E0EF5CFE4F958F80934A0186
:1004D000FF91EF919F918F912F910F900FBE0F90F1
:1004E0001F9018958081F4CFCF93DF93E1E3F1E083
:1004F0001382128288EE93E0A0E0B0E084839583BB
:10050000A683B78384E091E09183808385EC90E0BB
:100510009587848784EC90E09787868780EC90E0CD
:10052000918B808B81EC90E0938B828B82EC90E0BE
:10053000958B848B86EC90E0978B868B118E128E38
:10054000138E148ECEECD1E08EE090E099838883F8
:100550000E945F00BC01990F880B990B2AE0660F7F
:10056000771F881F991F2A95D1F72CEB32E040E0C6
:1005700050E00E949F033B832A83DF91CF9108952F
:10058000789484B5826084BD84B5816084BD85B56E
:10059000826085BD85B5816085BD80916E0081607A
:1005A00080936E0010928100809181008260809320
:1005B0008100809181008160809381008091800022
:1005C0008160809380008091B10084608093B1004D
:1005D0008091B00081608093B00080917A00846047
:1005E00080937A0080917A00826080937A00809173
:1005F0007A00816080937A0080917A00806880938D
:100600007A001092C100E0914101F091420182E034
:100610008083E0913D01F0913E011082E0913F0125
:10062000F09140018FEC808310924901E0914501E7
:10063000F091460186E08083E0914301F09144010E
:10064000808180618083E0914301F0914401808149
:1006500088608083E0914301F0914401808180684B
:100660008083E0914301F091440180818F7D8083FC
:10067000C0E0D0E08FB7F894C0902D01D0902E014B
:10068000E0902F01F09030018FBF8091CE010E9449
:100690005F00BC01990F880B990B0E94830421EA2B
:1006A0003EE04AEE5BE30E940F059B01AC0160E077
:1006B00070E080E89FE30E94E00320E030E040E546
:1006C00051E40E940F050E94520470932701609329
:1006D000260182E191E00E948101609126017091E2
:1006E000270190E080E04AE00E948E018BE191E0DA
:1006F0000E9481012FB7F89460912D0170912E0115
:1007000080912F01909130012FBF0D2C000CEE082D
:10071000FF086C197D098E099F094AE00E948E012D
:1007200083E291E00E948101209709F4A3CF0E9407
:10073000DE00882309F49ECF0E9400009BCF052E87
:1007400097FB1EF400940E94B60357FD07D00E9449
:10075000BE0307FC03D04EF40C94B60350954095AD
:10076000309521953F4F4F4F5F4F0895909580955D
:10077000709561957F4F8F4F9F4F0895A1E21A2E7C
:10078000AA1BBB1BFD010DC0AA1FBB1FEE1FFF1F35
:10079000A217B307E407F50720F0A21BB30BE40B85
:1007A000F50B661F771F881F991F1A9469F76095CC
:1007B0007095809590959B01AC01BD01CF01089586
:1007C0000E94F4030C94D5040E94CE0458F00E94B9
:1007D000C70440F029F45F3F29F00C94BE04511186
:1007E0000C9409050C94C4040E94E60468F3992350
:1007F000B1F3552391F3951B550BBB27AA2762171D
:100800007307840738F09F5F5F4F220F331F441F29
:10081000AA1FA9F335D00E2E3AF0E0E832D091505D
:100820005040E695001CCAF72BD0FE2F29D0660F4A
:10083000771F881FBB1F261737074807AB07B0E88D
:1008400009F0BB0B802DBF01FF2793585F4F3AF093
:100850009E3F510578F00C94BE040C9409055F3F4F
:10086000E4F3983ED4F3869577956795B795F79519
:100870009F5FC9F7880F911D9695879597F9089501
:10088000E1E0660F771F881FBB1F6217730784079D
:10089000BA0720F0621B730B840BBA0BEE1F88F7AC
:1008A000E09508950E94EE0488F09F5798F0B92FC4
:1008B0009927B751B0F0E1F0660F771F881F991F95
:1008C0001AF0BA95C9F714C0B13091F00E9408052A
:1008D000B1E008950C940805672F782F8827B85F3A
:1008E00039F0B93FCCF3869577956795B395D9F7ED
:1008F0003EF490958095709561957F4F8F4F9F4FF7
:100900000895E89409C097FB3EF490958095709502
:1009100061957F4F8F4F9F4F9923A9F0F92F96E94B
:10092000BB279395F695879577956795B795F111C0
:10093000F8CFFAF4BB0F11F460FF1BC06F5F7F4F5D
:100940008F4F9F4F16C0882311F096E911C077236F
:1009500021F09EE8872F762F05C0662371F096E878
:10096000862F70E060E02AF09A95660F771F881F47
:10097000DAF7880F9695879597F9089597F99F6705
:1009800080E870E060E008959FEF80EC0895002417
:100990000A941616170618060906089500240A94E4
:1009A00012161306140605060895092E0394000C6A
:1009B00011F4882352F0BB0F40F4BF2B11F460FFF9
:1009C00004C06F5F7F4F8F4F9F4F089557FD905822
:1009D000440F551F59F05F3F71F04795880F97FB03
:1009E000991F61F09F3F79F08795089512161306BD
:1009F0001406551FF2CF4695F1DF08C016161706EC
:100A00001806991FF1CF8695710561050894089520
:100A1000E894BB2766277727CB0197F908950E94B2
:100A200022050C94D5040E94C70438F00E94CE041D
:100A300020F0952311F00C94BE040C94C4041124EE
:100A40000C9409050E94E60470F3959FC1F3950F7D
:100A500050E0551F629FF001729FBB27F00DB11D42
:100A6000639FAA27F00DB11DAA1F649F6627B00DD2
:100A7000A11D661F829F2227B00DA11D621F739FBB
:100A8000B00DA11D621F839FA00D611D221F749FC9
:100A90003327A00D611D231F849F600D211D822F10
:100AA000762F6A2F11249F5750409AF0F1F0882337
:100AB0004AF0EE0FFF1FBB1F661F771F881F915064
:100AC0005040A9F79E3F510580F00C94BE040C9451
:100AD00009055F3FE4F3983ED4F3869577956795D3
:100AE000B795F795E7959F5FC1F7FE2B880F911D8E
:100AF0009695879597F90895EE0FFF1F0590F4914D
:100B0000E02D0994F894FFCF000000001401740058
:100B1000A1006101D200B000C40052656164656447
:0E0B20003A2000636D20696E3A20000D0A0035
:107E0000112484B714BE81FFF0D085E080938100F7
:107E100082E08093C00088E18093C10086E0809377
:107E2000C20080E18093C4008EE0C9D0259A86E02C
:107E300020E33CEF91E0309385002093840096BBD3
:107E4000B09BFECF1D9AA8958150A9F7CC24DD24C4
:107E500088248394B5E0AB2EA1E19A2EF3E0BF2EE7
:107E6000A2D0813461F49FD0082FAFD0023811F036
:107E7000013811F484E001C083E08DD089C08234E0
:107E800011F484E103C0853419F485E0A6D080C0E4
:107E9000853579F488D0E82EFF2485D0082F10E0AE
:107EA000102F00270E291F29000F111F8ED06801E7
:107EB0006FC0863521F484E090D080E0DECF843638
:107EC00009F040C070D06FD0082F6DD080E0C81688
:107ED00080E7D80618F4F601B7BEE895C0E0D1E017
:107EE00062D089930C17E1F7F0E0CF16F0E7DF06D8
:107EF00018F0F601B7BEE89568D007B600FCFDCFD4
:107F0000A601A0E0B1E02C9130E011968C91119780
:107F100090E0982F8827822B932B1296FA010C0160
:107F200087BEE89511244E5F5F4FF1E0A038BF0790
:107F300051F7F601A7BEE89507B600FCFDCF97BE46
:107F4000E89526C08437B1F42ED02DD0F82E2BD052
:107F50003CD0F601EF2C8F010F5F1F4F84911BD097
:107F6000EA94F801C1F70894C11CD11CFA94CF0C13
:107F7000D11C0EC0853739F428D08EE10CD085E9AC
:107F80000AD08FE07ACF813511F488E018D01DD067
:107F900080E101D065CF982F8091C00085FFFCCF94
:107FA0009093C60008958091C00087FFFCCF809118
:107FB000C00084FD01C0A8958091C6000895E0E648
:107FC000F0E098E1908380830895EDDF803219F02E
:107FD00088E0F5DFFFCF84E1DECF1F93182FE3DFCA
:107FE0001150E9F7F2DF1F91089580E0E8DFEE27F6
:047FF000FF270994CA
:027FFE00040479
:00000001FF
